###############################################################################
#
# IAR ELF Linker V9.32.1.338/W64 for ARM                  22/Dec/2023  23:59:33
# Copyright 2007-2022 IAR Systems AB.
#
#    Output file  =
#        D:\work\MCU\Porg\CVD\PFC2L28070G431\EWARM\PFC2L28070G431\Exe\PFC2L28070G431.out
#    Map file     =
#        D:\work\MCU\Porg\CVD\PFC2L28070G431\EWARM\PFC2L28070G431\List\PFC2L28070G431.map
#    Command line =
#        -f
#        D:\work\MCU\Porg\CVD\PFC2L28070G431\EWARM\PFC2L28070G431\Exe\PFC2L28070G431.out.rsp
#        (D:\work\MCU\Porg\CVD\PFC2L28070G431\EWARM\PFC2L28070G431\Obj\Application\User\Core\adc.o
#        D:\work\MCU\Porg\CVD\PFC2L28070G431\EWARM\PFC2L28070G431\Obj\Application\User\PFC\app_var.o
#        D:\work\MCU\Porg\CVD\PFC2L28070G431\EWARM\PFC2L28070G431\Obj\Application\User\PFC\BSP.o
#        D:\work\MCU\Porg\CVD\PFC2L28070G431\EWARM\PFC2L28070G431\Obj\Application\TH_LIB\Comm.o
#        D:\work\MCU\Porg\CVD\PFC2L28070G431\EWARM\PFC2L28070G431\Obj\Application\User\PFC\comm_table.o
#        D:\work\MCU\Porg\CVD\PFC2L28070G431\EWARM\PFC2L28070G431\Obj\Application\TH_LIB\CRC_Only.o
#        D:\work\MCU\Porg\CVD\PFC2L28070G431\EWARM\PFC2L28070G431\Obj\Application\User\Core\dac.o
#        D:\work\MCU\Porg\CVD\PFC2L28070G431\EWARM\PFC2L28070G431\Obj\Application\User\Core\dma.o
#        D:\work\MCU\Porg\CVD\PFC2L28070G431\EWARM\PFC2L28070G431\Obj\Application\User\Core\gpio.o
#        D:\work\MCU\Porg\CVD\PFC2L28070G431\EWARM\PFC2L28070G431\Obj\Application\User\PFC\Interrupt200Hz.o
#        D:\work\MCU\Porg\CVD\PFC2L28070G431\EWARM\PFC2L28070G431\Obj\Application\User\PFC\InterruptADC.o
#        D:\work\MCU\Porg\CVD\PFC2L28070G431\EWARM\PFC2L28070G431\Obj\Application\User\Core\iwdg.o
#        D:\work\MCU\Porg\CVD\PFC2L28070G431\EWARM\PFC2L28070G431\Obj\Application\User\Core\main.o
#        D:\work\MCU\Porg\CVD\PFC2L28070G431\EWARM\PFC2L28070G431\Obj\Application\TH_LIB\Modbus.o
#        D:\work\MCU\Porg\CVD\PFC2L28070G431\EWARM\PFC2L28070G431\Obj\Application\User\Core\spi.o
#        D:\work\MCU\Porg\CVD\PFC2L28070G431\EWARM\PFC2L28070G431\Obj\Application\EWARM\startup_stm32g431xx.o
#        D:\work\MCU\Porg\CVD\PFC2L28070G431\EWARM\PFC2L28070G431\Obj\Drivers\STM32G4xx_HAL_Driver\stm32g4xx_hal.o
#        D:\work\MCU\Porg\CVD\PFC2L28070G431\EWARM\PFC2L28070G431\Obj\Drivers\STM32G4xx_HAL_Driver\stm32g4xx_hal_adc.o
#        D:\work\MCU\Porg\CVD\PFC2L28070G431\EWARM\PFC2L28070G431\Obj\Drivers\STM32G4xx_HAL_Driver\stm32g4xx_hal_adc_ex.o
#        D:\work\MCU\Porg\CVD\PFC2L28070G431\EWARM\PFC2L28070G431\Obj\Drivers\STM32G4xx_HAL_Driver\stm32g4xx_hal_cortex.o
#        D:\work\MCU\Porg\CVD\PFC2L28070G431\EWARM\PFC2L28070G431\Obj\Drivers\STM32G4xx_HAL_Driver\stm32g4xx_hal_dac.o
#        D:\work\MCU\Porg\CVD\PFC2L28070G431\EWARM\PFC2L28070G431\Obj\Drivers\STM32G4xx_HAL_Driver\stm32g4xx_hal_dac_ex.o
#        D:\work\MCU\Porg\CVD\PFC2L28070G431\EWARM\PFC2L28070G431\Obj\Drivers\STM32G4xx_HAL_Driver\stm32g4xx_hal_dma.o
#        D:\work\MCU\Porg\CVD\PFC2L28070G431\EWARM\PFC2L28070G431\Obj\Drivers\STM32G4xx_HAL_Driver\stm32g4xx_hal_dma_ex.o
#        D:\work\MCU\Porg\CVD\PFC2L28070G431\EWARM\PFC2L28070G431\Obj\Drivers\STM32G4xx_HAL_Driver\stm32g4xx_hal_exti.o
#        D:\work\MCU\Porg\CVD\PFC2L28070G431\EWARM\PFC2L28070G431\Obj\Drivers\STM32G4xx_HAL_Driver\stm32g4xx_hal_flash.o
#        D:\work\MCU\Porg\CVD\PFC2L28070G431\EWARM\PFC2L28070G431\Obj\Drivers\STM32G4xx_HAL_Driver\stm32g4xx_hal_flash_ex.o
#        D:\work\MCU\Porg\CVD\PFC2L28070G431\EWARM\PFC2L28070G431\Obj\Drivers\STM32G4xx_HAL_Driver\stm32g4xx_hal_flash_ramfunc.o
#        D:\work\MCU\Porg\CVD\PFC2L28070G431\EWARM\PFC2L28070G431\Obj\Drivers\STM32G4xx_HAL_Driver\stm32g4xx_hal_gpio.o
#        D:\work\MCU\Porg\CVD\PFC2L28070G431\EWARM\PFC2L28070G431\Obj\Drivers\STM32G4xx_HAL_Driver\stm32g4xx_hal_iwdg.o
#        D:\work\MCU\Porg\CVD\PFC2L28070G431\EWARM\PFC2L28070G431\Obj\Application\User\Core\stm32g4xx_hal_msp.o
#        D:\work\MCU\Porg\CVD\PFC2L28070G431\EWARM\PFC2L28070G431\Obj\Drivers\STM32G4xx_HAL_Driver\stm32g4xx_hal_pwr.o
#        D:\work\MCU\Porg\CVD\PFC2L28070G431\EWARM\PFC2L28070G431\Obj\Drivers\STM32G4xx_HAL_Driver\stm32g4xx_hal_pwr_ex.o
#        D:\work\MCU\Porg\CVD\PFC2L28070G431\EWARM\PFC2L28070G431\Obj\Drivers\STM32G4xx_HAL_Driver\stm32g4xx_hal_rcc.o
#        D:\work\MCU\Porg\CVD\PFC2L28070G431\EWARM\PFC2L28070G431\Obj\Drivers\STM32G4xx_HAL_Driver\stm32g4xx_hal_rcc_ex.o
#        D:\work\MCU\Porg\CVD\PFC2L28070G431\EWARM\PFC2L28070G431\Obj\Drivers\STM32G4xx_HAL_Driver\stm32g4xx_hal_spi.o
#        D:\work\MCU\Porg\CVD\PFC2L28070G431\EWARM\PFC2L28070G431\Obj\Drivers\STM32G4xx_HAL_Driver\stm32g4xx_hal_spi_ex.o
#        D:\work\MCU\Porg\CVD\PFC2L28070G431\EWARM\PFC2L28070G431\Obj\Drivers\STM32G4xx_HAL_Driver\stm32g4xx_hal_tim.o
#        D:\work\MCU\Porg\CVD\PFC2L28070G431\EWARM\PFC2L28070G431\Obj\Drivers\STM32G4xx_HAL_Driver\stm32g4xx_hal_tim_ex.o
#        D:\work\MCU\Porg\CVD\PFC2L28070G431\EWARM\PFC2L28070G431\Obj\Drivers\STM32G4xx_HAL_Driver\stm32g4xx_hal_uart.o
#        D:\work\MCU\Porg\CVD\PFC2L28070G431\EWARM\PFC2L28070G431\Obj\Drivers\STM32G4xx_HAL_Driver\stm32g4xx_hal_uart_ex.o
#        D:\work\MCU\Porg\CVD\PFC2L28070G431\EWARM\PFC2L28070G431\Obj\Application\User\Core\stm32g4xx_it.o
#        D:\work\MCU\Porg\CVD\PFC2L28070G431\EWARM\PFC2L28070G431\Obj\Drivers\STM32G4xx_HAL_Driver\stm32g4xx_ll_adc.o
#        D:\work\MCU\Porg\CVD\PFC2L28070G431\EWARM\PFC2L28070G431\Obj\Drivers\CMSIS\system_stm32g4xx.o
#        D:\work\MCU\Porg\CVD\PFC2L28070G431\EWARM\PFC2L28070G431\Obj\Application\User\Core\tim.o
#        D:\work\MCU\Porg\CVD\PFC2L28070G431\EWARM\PFC2L28070G431\Obj\Application\User\Core\usart.o
#        --no_out_extension -o
#        D:\work\MCU\Porg\CVD\PFC2L28070G431\EWARM\PFC2L28070G431\Exe\PFC2L28070G431.out
#        --redirect _Printf=_PrintfFullNoMb --redirect _Scanf=_ScanfFullNoMb
#        --map
#        D:\work\MCU\Porg\CVD\PFC2L28070G431\EWARM\PFC2L28070G431\List\PFC2L28070G431.map
#        --config
#        D:\work\MCU\Porg\CVD\PFC2L28070G431\EWARM/stm32g431xx_flash.icf
#        --semihosting --entry __iar_program_start --vfe --text_out locale
#        --cpu=Cortex-M4 --fpu=VFPv4_sp)
#
###############################################################################

*******************************************************************************
*** RUNTIME MODEL ATTRIBUTES
***

CppFlavor       = *
__CPP_Runtime   = 1
__SystemLibrary = DLib
__dlib_version  = 6


*******************************************************************************
*** HEAP SELECTION
***

The basic heap was selected because --advanced_heap
was not specified and the application did not appear to
be primarily optimized for speed.


*******************************************************************************
*** PLACEMENT SUMMARY
***

"A0":  place at address 0x800'0000 { ro section .intvec };
"P1":  place in [from 0x800'0000 to 0x801'ffff] { ro };
define block CSTACK with size = 1K, alignment = 8 { };
define block HEAP with size = 512, alignment = 8 { };
"P2":  place in [from 0x2000'0000 to 0x2000'7fff] {
          rw, block CSTACK, block HEAP };
initialize by copy { rw };

  Section            Kind         Address    Size  Object
  -------            ----         -------    ----  ------
"A0":                                       0x1d8
  .intvec            ro code   0x800'0000   0x1d8  startup_stm32g431xx.o [1]
                             - 0x800'01d8   0x1d8

"P1":                                      0x55b4
  .text              ro code   0x800'01d8   0x990  stm32g4xx_hal_uart.o [6]
  .text              ro code   0x800'0b68   0x15c  usart.o [3]
  .text              ro code   0x800'0cc4   0x2f4  stm32g4xx_hal_dma.o [6]
  .text              ro code   0x800'0fb8   0x634  stm32g4xx_hal_rcc.o [6]
  .text              ro code   0x800'15ec   0x106  I64DivMod_small.o [9]
  .text              ro code   0x800'16f2    0x2a  copy_init3.o [9]
  .text              ro code   0x800'171c     0xc  stm32g4xx_hal.o [6]
  .text              ro code   0x800'1728     0x2  stm32g4xx_hal_uart.o [6]
  .text              ro code   0x800'172a     0x2  stm32g4xx_hal_uart.o [6]
  .text              ro code   0x800'172c     0x2  stm32g4xx_hal_uart.o [6]
  .text              ro code   0x800'172e     0x2  stm32g4xx_hal_uart.o [6]
  .text              ro code   0x800'1730     0x2  stm32g4xx_hal_uart.o [6]
  .text              ro code   0x800'1732     0x2  stm32g4xx_hal_uart.o [6]
  .text              ro code   0x800'1734   0x23c  main.o [3]
  .text              ro code   0x800'1970    0xf8  stm32g4xx_hal_uart_ex.o [6]
  .text              ro code   0x800'1a68    0x14  memset.o [9]
  .text              ro code   0x800'1a7c   0x228  stm32g4xx_hal_rcc_ex.o [6]
  .text              ro code   0x800'1ca4   0x1e8  stm32g4xx_hal_gpio.o [6]
  .text              ro code   0x800'1e8c    0x44  stm32g4xx_hal.o [6]
  .text              ro code   0x800'1ed0     0x2  I64DivZer.o [9]
  .text              ro code   0x800'1ed4    0x64  stm32g4xx_hal.o [6]
  .text              ro code   0x800'1f38    0xf2  gpio.o [3]
  .text              ro code   0x800'202c    0x30  dma.o [3]
  .text              ro code   0x800'205c    0x2c  iwdg.o [3]
  .text              ro code   0x800'2088   0x230  adc.o [3]
  .text              ro code   0x800'22b8    0xc0  dac.o [3]
  .text              ro code   0x800'2378    0xe8  spi.o [3]
  .text              ro code   0x800'2460   0x1a4  tim.o [3]
  .text              ro code   0x800'2604   0x708  stm32g4xx_hal_adc_ex.o [6]
  .text              ro code   0x800'2d0c    0x94  app_var.o [4]
  .text              ro code   0x800'2da0   0x26e  stm32g4xx_hal_dac.o [6]
  .text              ro code   0x800'3010   0x7d0  stm32g4xx_hal_tim.o [6]
  .text              ro code   0x800'37e0   0x440  stm32g4xx_hal_adc.o [6]
  .text              ro code   0x800'3c20    0x68  stm32g4xx_hal_iwdg.o [6]
  .text              ro code   0x800'3c88   0x274  Interrupt200Hz.o [4]
  .text              ro code   0x800'3efc    0xfe  BSP.o [4]
  .text              ro code   0x800'3ffa   0x242  Comm.o [2]
  .text              ro code   0x800'423c    0x9c  stm32g4xx_hal_pwr_ex.o [6]
  .text              ro code   0x800'42d8    0x66  ABImemset.o [9]
  .text              ro code   0x800'4340    0xc4  stm32g4xx_hal_cortex.o [6]
  .text              ro code   0x800'4404    0x40  stm32g4xx_hal_msp.o [3]
  .text              ro code   0x800'4444    0xea  stm32g4xx_hal_spi.o [6]
  .text              ro code   0x800'4530    0x9c  stm32g4xx_hal_tim_ex.o [6]
  .text              ro code   0x800'45cc    0x28  stm32g4xx_hal.o [6]
  .text              ro code   0x800'45f4     0x2  stm32g4xx_hal_tim.o [6]
  .text              ro code   0x800'45f6   0x5ac  Modbus.o [2]
  .text              ro code   0x800'4ba2    0x5c  CRC_Only.o [2]
  .text              ro code   0x800'4c00    0x34  comm_table.o [4]
  .rodata            const     0x800'4c34   0x800  stm32g4xx_it.o [3]
  .text              ro code   0x800'5434    0xcc  stm32g4xx_it.o [3]
  .text              ro code   0x800'5500    0x10  stm32g4xx_hal.o [6]
  .text              ro code   0x800'5510    0x38  zero_init3.o [9]
  .text              ro code   0x800'5548    0x28  data_init.o [9]
  .text              ro code   0x800'5570    0x22  fpinit_M.o [8]
  .iar.init_table    const     0x800'5594    0x24  - Linker created -
  .text              ro code   0x800'55b8    0x20  system_stm32g4xx.o [5]
  .text              ro code   0x800'55d8    0x1e  cmain.o [9]
  .text              ro code   0x800'55f6     0x4  low_level_init.o [7]
  .text              ro code   0x800'55fa     0x4  exit.o [7]
  .text              ro code   0x800'5600     0xa  cexit.o [9]
  .text              ro code   0x800'560c    0x14  exit.o [10]
  .text              ro code   0x800'5620    0x1c  cstartup_M.o [9]
  Initializer bytes  const     0x800'563c    0x1c  <for P2-1>
  .text              ro code   0x800'5658    0x10  startup_stm32g431xx.o [1]
  .rodata            const     0x800'5668     0x8  app_var.o [4]
  .rodata            const     0x800'5670     0x8  system_stm32g4xx.o [5]
  .text              ro code   0x800'5678     0x4  startup_stm32g431xx.o [1]
  .text              ro code   0x800'567c     0x4  startup_stm32g431xx.o [1]
  .text              ro code   0x800'5680     0x4  startup_stm32g431xx.o [1]
  .text              ro code   0x800'5684     0x4  startup_stm32g431xx.o [1]
  .text              ro code   0x800'5688     0x4  startup_stm32g431xx.o [1]
  .text              ro code   0x800'568c     0x4  startup_stm32g431xx.o [1]
  .text              ro code   0x800'5690     0x4  startup_stm32g431xx.o [1]
  .text              ro code   0x800'5694     0x4  startup_stm32g431xx.o [1]
  .text              ro code   0x800'5698     0x4  startup_stm32g431xx.o [1]
  .text              ro code   0x800'569c     0x4  startup_stm32g431xx.o [1]
  .text              ro code   0x800'56a0     0x4  startup_stm32g431xx.o [1]
  .text              ro code   0x800'56a4     0x4  startup_stm32g431xx.o [1]
  .text              ro code   0x800'56a8     0x4  startup_stm32g431xx.o [1]
  .text              ro code   0x800'56ac     0x4  startup_stm32g431xx.o [1]
  .text              ro code   0x800'56b0     0x4  startup_stm32g431xx.o [1]
  .text              ro code   0x800'56b4     0x4  startup_stm32g431xx.o [1]
  .text              ro code   0x800'56b8     0x4  startup_stm32g431xx.o [1]
  .text              ro code   0x800'56bc     0x4  startup_stm32g431xx.o [1]
  .text              ro code   0x800'56c0     0x4  startup_stm32g431xx.o [1]
  .text              ro code   0x800'56c4     0x4  startup_stm32g431xx.o [1]
  .text              ro code   0x800'56c8     0x4  startup_stm32g431xx.o [1]
  .text              ro code   0x800'56cc     0x4  startup_stm32g431xx.o [1]
  .text              ro code   0x800'56d0     0x4  startup_stm32g431xx.o [1]
  .text              ro code   0x800'56d4     0x4  startup_stm32g431xx.o [1]
  .text              ro code   0x800'56d8     0x4  startup_stm32g431xx.o [1]
  .text              ro code   0x800'56dc     0x4  startup_stm32g431xx.o [1]
  .text              ro code   0x800'56e0     0x4  startup_stm32g431xx.o [1]
  .text              ro code   0x800'56e4     0x4  startup_stm32g431xx.o [1]
  .text              ro code   0x800'56e8     0x4  startup_stm32g431xx.o [1]
  .text              ro code   0x800'56ec     0x4  startup_stm32g431xx.o [1]
  .text              ro code   0x800'56f0     0x4  startup_stm32g431xx.o [1]
  .text              ro code   0x800'56f4     0x4  startup_stm32g431xx.o [1]
  .text              ro code   0x800'56f8     0x4  startup_stm32g431xx.o [1]
  .text              ro code   0x800'56fc     0x4  startup_stm32g431xx.o [1]
  .text              ro code   0x800'5700     0x4  startup_stm32g431xx.o [1]
  .text              ro code   0x800'5704     0x4  startup_stm32g431xx.o [1]
  .text              ro code   0x800'5708     0x4  startup_stm32g431xx.o [1]
  .text              ro code   0x800'570c     0x4  startup_stm32g431xx.o [1]
  .text              ro code   0x800'5710     0x4  startup_stm32g431xx.o [1]
  .text              ro code   0x800'5714     0x4  startup_stm32g431xx.o [1]
  .text              ro code   0x800'5718     0x4  startup_stm32g431xx.o [1]
  .text              ro code   0x800'571c     0x4  startup_stm32g431xx.o [1]
  .text              ro code   0x800'5720     0x4  startup_stm32g431xx.o [1]
  .text              ro code   0x800'5724     0x4  startup_stm32g431xx.o [1]
  .text              ro code   0x800'5728     0x4  startup_stm32g431xx.o [1]
  .text              ro code   0x800'572c     0x4  startup_stm32g431xx.o [1]
  .text              ro code   0x800'5730     0x4  startup_stm32g431xx.o [1]
  .text              ro code   0x800'5734     0x4  startup_stm32g431xx.o [1]
  .text              ro code   0x800'5738     0x4  startup_stm32g431xx.o [1]
  .text              ro code   0x800'573c     0x4  startup_stm32g431xx.o [1]
  .text              ro code   0x800'5740     0x4  startup_stm32g431xx.o [1]
  .text              ro code   0x800'5744     0x4  startup_stm32g431xx.o [1]
  .text              ro code   0x800'5748     0x4  startup_stm32g431xx.o [1]
  .text              ro code   0x800'574c     0x4  startup_stm32g431xx.o [1]
  .text              ro code   0x800'5750     0x4  startup_stm32g431xx.o [1]
  .text              ro code   0x800'5754     0x4  startup_stm32g431xx.o [1]
  .text              ro code   0x800'5758     0x4  startup_stm32g431xx.o [1]
  .text              ro code   0x800'575c     0x4  startup_stm32g431xx.o [1]
  .text              ro code   0x800'5760     0x4  startup_stm32g431xx.o [1]
  .text              ro code   0x800'5764     0x4  startup_stm32g431xx.o [1]
  .text              ro code   0x800'5768     0x4  startup_stm32g431xx.o [1]
  .text              ro code   0x800'576c     0x4  startup_stm32g431xx.o [1]
  .text              ro code   0x800'5770     0x4  startup_stm32g431xx.o [1]
  .text              ro code   0x800'5774     0x4  startup_stm32g431xx.o [1]
  .text              ro code   0x800'5778     0x4  startup_stm32g431xx.o [1]
  .text              ro code   0x800'577c     0x4  startup_stm32g431xx.o [1]
  .text              ro code   0x800'5780     0x4  startup_stm32g431xx.o [1]
  .text              ro code   0x800'5784     0x4  startup_stm32g431xx.o [1]
  .text              ro code   0x800'5788     0x4  startup_stm32g431xx.o [1]
  .rodata            const     0x800'578c     0x0  zero_init3.o [9]
  .rodata            const     0x800'578c     0x0  copy_init3.o [9]
                             - 0x800'578c  0x55b4

"P2", part 1 of 3:                           0x1c
  P2-1                        0x2000'0000    0x1c  <Init block>
    .data            inited   0x2000'0000     0x8  Interrupt200Hz.o [4]
    .data            inited   0x2000'0008     0xc  stm32g4xx_hal.o [6]
    .data            inited   0x2000'0014     0x4  system_stm32g4xx.o [5]
    .data            inited   0x2000'0018     0x4  main.o [3]
                            - 0x2000'001c    0x1c

"P2", part 2 of 3:                         0x1490
  .bss               zero     0x2000'001c   0x804  Comm.o [2]
  .bss               zero     0x2000'0820   0x804  Comm.o [2]
  .bss               zero     0x2000'1024    0xc0  usart.o [3]
  .bss               zero     0x2000'10e4    0x90  usart.o [3]
  .bss               zero     0x2000'1174    0x6c  adc.o [3]
  .bss               zero     0x2000'11e0    0x6c  adc.o [3]
  .bss               zero     0x2000'124c    0x64  spi.o [3]
  .bss               zero     0x2000'12b0    0x4c  tim.o [3]
  .bss               zero     0x2000'12fc    0x4c  tim.o [3]
  .bss               zero     0x2000'1348    0x44  Comm.o [2]
  .bss               zero     0x2000'138c    0x20  InterruptADC.o [4]
  .bss               zero     0x2000'13ac    0x1c  InterruptADC.o [4]
  .bss               zero     0x2000'13c8    0x1c  InterruptADC.o [4]
  .bss               zero     0x2000'13e4    0x18  Comm.o [2]
  .bss               zero     0x2000'13fc    0x18  InterruptADC.o [4]
  .bss               zero     0x2000'1414    0x18  InterruptADC.o [4]
  .bss               zero     0x2000'142c    0x14  dac.o [3]
  .bss               zero     0x2000'1440    0x14  InterruptADC.o [4]
  .bss               zero     0x2000'1454    0x14  InterruptADC.o [4]
  .bss               zero     0x2000'1468    0x10  iwdg.o [3]
  .bss               zero     0x2000'1478     0xc  InterruptADC.o [4]
  .bss               zero     0x2000'1484     0xc  InterruptADC.o [4]
  .bss               zero     0x2000'1490     0x8  stm32g4xx_it.o [3]
  .bss               zero     0x2000'1498     0x4  adc.o [3]
  .bss               zero     0x2000'149c     0x4  app_var.o [4]
  .bss               zero     0x2000'14a0     0x4  app_var.o [4]
  .bss               zero     0x2000'14a4     0x4  app_var.o [4]
  .bss               zero     0x2000'14a8     0x4  Interrupt200Hz.o [4]
                            - 0x2000'14ac  0x1490

"P2", part 3 of 3:                          0x400
  CSTACK                      0x2000'14b0   0x400  <Block>
    CSTACK           uninit   0x2000'14b0   0x400  <Block tail>
                            - 0x2000'18b0   0x400

Unused ranges:

         From           To      Size
         ----           --      ----
   0x800'578c   0x801'ffff  0x1'a874
  0x2000'14ac  0x2000'14af       0x4
  0x2000'18b0  0x2000'7fff    0x6750


*******************************************************************************
*** INIT TABLE
***

          Address      Size
          -------      ----
Zero (__iar_zero_init3)
    1 destination range, total size 0x1490:
          0x2000'001c  0x1490

Copy (__iar_copy_init3)
    1 source range, total size 0x1c:
           0x800'563c    0x1c
    1 destination range, total size 0x1c:
          0x2000'0000    0x1c



*******************************************************************************
*** MODULE SUMMARY
***

    Module                   ro code  ro data  rw data
    ------                   -------  -------  -------
command line/config:
    --------------------------------------------------
    Total:

D:\work\MCU\Porg\CVD\PFC2L28070G431\EWARM\PFC2L28070G431\Obj\Application\EWARM: [1]
    startup_stm32g431xx.o        764
    --------------------------------------------------
    Total:                       764

D:\work\MCU\Porg\CVD\PFC2L28070G431\EWARM\PFC2L28070G431\Obj\Application\TH_LIB: [2]
    CRC_Only.o                    92
    Comm.o                       578             4'196
    Modbus.o                   1'452
    --------------------------------------------------
    Total:                     2'122             4'196

D:\work\MCU\Porg\CVD\PFC2L28070G431\EWARM\PFC2L28070G431\Obj\Application\User\Core: [3]
    adc.o                        560               220
    dac.o                        192                20
    dma.o                         48
    gpio.o                       242
    iwdg.o                        44                16
    main.o                       572        4        4
    spi.o                        232               100
    stm32g4xx_hal_msp.o           64
    stm32g4xx_it.o               204    2'048        8
    tim.o                        420               152
    usart.o                      348               336
    --------------------------------------------------
    Total:                     2'926    2'052      856

D:\work\MCU\Porg\CVD\PFC2L28070G431\EWARM\PFC2L28070G431\Obj\Application\User\PFC: [4]
    BSP.o                        254
    Interrupt200Hz.o             628        8       12
    InterruptADC.o                                 200
    app_var.o                    148        8       12
    comm_table.o                  52
    --------------------------------------------------
    Total:                     1'082       16      224

D:\work\MCU\Porg\CVD\PFC2L28070G431\EWARM\PFC2L28070G431\Obj\Drivers\CMSIS: [5]
    system_stm32g4xx.o            32       12        4
    --------------------------------------------------
    Total:                        32       12        4

D:\work\MCU\Porg\CVD\PFC2L28070G431\EWARM\PFC2L28070G431\Obj\Drivers\STM32G4xx_HAL_Driver: [6]
    stm32g4xx_hal.o              236       12       12
    stm32g4xx_hal_adc.o        1'088
    stm32g4xx_hal_adc_ex.o     1'800
    stm32g4xx_hal_cortex.o       196
    stm32g4xx_hal_dac.o          622
    stm32g4xx_hal_dma.o          756
    stm32g4xx_hal_gpio.o         488
    stm32g4xx_hal_iwdg.o         104
    stm32g4xx_hal_pwr_ex.o       156
    stm32g4xx_hal_rcc.o        1'588
    stm32g4xx_hal_rcc_ex.o       552
    stm32g4xx_hal_spi.o          234
    stm32g4xx_hal_tim.o        2'002
    stm32g4xx_hal_tim_ex.o       156
    stm32g4xx_hal_uart.o       2'460
    stm32g4xx_hal_uart_ex.o      248
    --------------------------------------------------
    Total:                    12'686       12       12

dl7M_tln.a: [7]
    exit.o                         4
    low_level_init.o               4
    --------------------------------------------------
    Total:                         8

m7M_tls.a: [8]
    fpinit_M.o                    34
    --------------------------------------------------
    Total:                        34

rt7M_tl.a: [9]
    ABImemset.o                  102
    I64DivMod_small.o            262
    I64DivZer.o                    2
    cexit.o                       10
    cmain.o                       30
    copy_init3.o                  42
    cstartup_M.o                  28
    data_init.o                   40
    memset.o                      20
    zero_init3.o                  56
    --------------------------------------------------
    Total:                       592

shb_l.a: [10]
    exit.o                        20
    --------------------------------------------------
    Total:                        20

    Gaps                          16        2
    Linker created                         36    1'024
------------------------------------------------------
    Grand Total:              20'282    2'130    6'316


*******************************************************************************
*** ENTRY LIST
***

Entry                       Address   Size  Type      Object
-----                       -------   ----  ----      ------
.iar.init_table$$Base    0x800'5594          --   Gb  - Linker created -
.iar.init_table$$Limit   0x800'55b8          --   Gb  - Linker created -
?main                    0x800'55d9         Code  Gb  cmain.o [9]
ADC1_2_IRQHandler        0x800'545b   0x82  Code  Gb  stm32g4xx_it.o [3]
ADC1_2_IRQHandler{1}{3}::TempSum
                        0x2000'1494    0x4  Data  Lc  stm32g4xx_it.o [3]
ADC1_2_IRQHandler{1}{3}::VbusSum
                        0x2000'1490    0x4  Data  Lc  stm32g4xx_it.o [3]
ADC_Disable              0x800'3ba7   0x6a  Code  Gb  stm32g4xx_hal_adc.o [6]
ADC_Enable               0x800'3b35   0x58  Code  Gb  stm32g4xx_hal_adc.o [6]
AHBPrescTable            0x800'55c8   0x10  Data  Gb  system_stm32g4xx.o [5]
APBPrescTable            0x800'5670    0x8  Data  Gb  system_stm32g4xx.o [5]
BSP_Comm_485_ForceSend   0x800'3f0b   0x28  Code  Gb  BSP.o [4]
BSP_Comm_Uart_Send       0x800'3efd    0xe  Code  Gb  BSP.o [4]
BusFault_Handler         0x800'543b    0x2  Code  Gb  stm32g4xx_it.o [3]
COMP1_2_3_IRQHandler     0x800'5759         Code  Wk  startup_stm32g431xx.o [1]
COMP4_IRQHandler         0x800'575d         Code  Wk  startup_stm32g431xx.o [1]
CORDIC_IRQHandler        0x800'5785         Code  Wk  startup_stm32g431xx.o [1]
CRC16                    0x800'4ba3   0x5c  Code  Gb  CRC_Only.o [2]
CRS_IRQHandler           0x800'5761         Code  Wk  startup_stm32g431xx.o [1]
CSTACK$$Base            0x2000'14b0          --   Gb  - Linker created -
CSTACK$$Limit           0x2000'18b0          --   Gb  - Linker created -
DMA1_Channel1_IRQHandler
                         0x800'56a5         Code  Wk  startup_stm32g431xx.o [1]
DMA1_Channel2_IRQHandler
                         0x800'56a9         Code  Wk  startup_stm32g431xx.o [1]
DMA1_Channel3_IRQHandler
                         0x800'56ad         Code  Wk  startup_stm32g431xx.o [1]
DMA1_Channel4_IRQHandler
                         0x800'56b1         Code  Wk  startup_stm32g431xx.o [1]
DMA1_Channel5_IRQHandler
                         0x800'56b5         Code  Wk  startup_stm32g431xx.o [1]
DMA1_Channel6_IRQHandler
                         0x800'56b9         Code  Wk  startup_stm32g431xx.o [1]
DMA2_Channel1_IRQHandler
                         0x800'5741         Code  Wk  startup_stm32g431xx.o [1]
DMA2_Channel2_IRQHandler
                         0x800'5745         Code  Wk  startup_stm32g431xx.o [1]
DMA2_Channel3_IRQHandler
                         0x800'5749         Code  Wk  startup_stm32g431xx.o [1]
DMA2_Channel4_IRQHandler
                         0x800'574d         Code  Wk  startup_stm32g431xx.o [1]
DMA2_Channel5_IRQHandler
                         0x800'5751         Code  Wk  startup_stm32g431xx.o [1]
DMA2_Channel6_IRQHandler
                         0x800'5781         Code  Wk  startup_stm32g431xx.o [1]
DMAMUX_OVR_IRQHandler    0x800'577d         Code  Wk  startup_stm32g431xx.o [1]
DMA_CalcDMAMUXChannelBaseAndMask
                         0x800'0f41   0x36  Code  Lc  stm32g4xx_hal_dma.o [6]
DMA_CalcDMAMUXRequestGenBaseAndMask
                         0x800'0f77   0x1c  Code  Lc  stm32g4xx_hal_dma.o [6]
DMA_SetConfig            0x800'0f09   0x38  Code  Lc  stm32g4xx_hal_dma.o [6]
DMA_check_All_channel_rec_finish
                         0x800'3fb3    0x6  Code  Gb  BSP.o [4]
DMA_check_All_channel_send_finish
                         0x800'3fe5    0x4  Code  Gb  BSP.o [4]
DMA_check_each_channel_rec_finish
                         0x800'3f57   0x5c  Code  Gb  BSP.o [4]
DMA_check_each_channel_send_finish
                         0x800'3fb9   0x2c  Code  Gb  BSP.o [4]
DRV_Comm_Led             0x800'3ff9    0x2  Code  Gb  BSP.o [4]
DebugMon_Handler         0x800'5441    0x2  Code  Gb  stm32g4xx_it.o [3]
EXTI0_IRQHandler         0x800'5691         Code  Wk  startup_stm32g431xx.o [1]
EXTI15_10_IRQHandler     0x800'5711         Code  Wk  startup_stm32g431xx.o [1]
EXTI1_IRQHandler         0x800'5695         Code  Wk  startup_stm32g431xx.o [1]
EXTI2_IRQHandler         0x800'5699         Code  Wk  startup_stm32g431xx.o [1]
EXTI3_IRQHandler         0x800'569d         Code  Wk  startup_stm32g431xx.o [1]
EXTI4_IRQHandler         0x800'56a1         Code  Wk  startup_stm32g431xx.o [1]
EXTI9_5_IRQHandler       0x800'56cd         Code  Wk  startup_stm32g431xx.o [1]
ErrCheck                 0x800'3e47   0x7e  Code  Gb  Interrupt200Hz.o [4]
ErrCheck::su16_AcLowCnt
                        0x2000'14a8    0x2  Data  Lc  Interrupt200Hz.o [4]
ErrCheck::su16_AcLowReCnt
                        0x2000'14aa    0x2  Data  Lc  Interrupt200Hz.o [4]
Error_Handler            0x800'196d    0x4  Code  Gb  main.o [3]
FDCAN1_IT0_IRQHandler    0x800'56c5         Code  Wk  startup_stm32g431xx.o [1]
FDCAN1_IT1_IRQHandler    0x800'56c9         Code  Wk  startup_stm32g431xx.o [1]
FLASH_IRQHandler         0x800'5689         Code  Wk  startup_stm32g431xx.o [1]
FMAC_IRQHandler          0x800'5789         Code  Wk  startup_stm32g431xx.o [1]
FPU_IRQHandler           0x800'5769         Code  Wk  startup_stm32g431xx.o [1]
Feed                    0x2000'1440   0x14  Data  Gb  InterruptADC.o [4]
Flag                    0x2000'1484    0xc  Data  Gb  InterruptADC.o [4]
HAL_ADCEx_Calibration_Start
                         0x800'2649   0x8c  Code  Gb  stm32g4xx_hal_adc_ex.o [6]
HAL_ADCEx_InjectedConfigChannel
                         0x800'27a1  0x40e  Code  Gb  stm32g4xx_hal_adc_ex.o [6]
HAL_ADCEx_InjectedStart
                         0x800'26d5   0xaa  Code  Gb  stm32g4xx_hal_adc_ex.o [6]
HAL_ADCEx_MultiModeConfigChannel
                         0x800'2c0f   0xae  Code  Gb  stm32g4xx_hal_adc_ex.o [6]
HAL_ADC_Init             0x800'37e1  0x1dc  Code  Gb  stm32g4xx_hal_adc.o [6]
HAL_ADC_MspInit          0x800'219f   0xb8  Code  Gb  adc.o [3]
HAL_ADC_Start_IT         0x800'39bd  0x12a  Code  Gb  stm32g4xx_hal_adc.o [6]
HAL_DAC_ConfigChannel    0x800'2e57  0x19c  Code  Gb  stm32g4xx_hal_dac.o [6]
HAL_DAC_Init             0x800'2da1   0x28  Code  Gb  stm32g4xx_hal_dac.o [6]
HAL_DAC_MspInit          0x800'2315   0x58  Code  Gb  dac.o [3]
HAL_DAC_SetValue         0x800'2e33   0x24  Code  Gb  stm32g4xx_hal_dac.o [6]
HAL_DAC_Start            0x800'2dc9   0x6a  Code  Gb  stm32g4xx_hal_dac.o [6]
HAL_DMA_Abort            0x800'0e93   0x68  Code  Gb  stm32g4xx_hal_dma.o [6]
HAL_DMA_DeInit           0x800'0d4d   0x72  Code  Gb  stm32g4xx_hal_dma.o [6]
HAL_DMA_GetError         0x800'0f05    0x4  Code  Gb  stm32g4xx_hal_dma.o [6]
HAL_DMA_Init             0x800'0cc5   0x88  Code  Gb  stm32g4xx_hal_dma.o [6]
HAL_DMA_Start_IT         0x800'0e0b   0x88  Code  Gb  stm32g4xx_hal_dma.o [6]
HAL_Delay                0x800'45cd   0x28  Code  Wk  stm32g4xx_hal.o [6]
HAL_GPIO_Init            0x800'1ca5  0x1bc  Code  Gb  stm32g4xx_hal_gpio.o [6]
HAL_GPIO_WritePin        0x800'1e61    0xa  Code  Gb  stm32g4xx_hal_gpio.o [6]
HAL_GetTick              0x800'171d    0xc  Code  Wk  stm32g4xx_hal.o [6]
HAL_IWDG_Init            0x800'3c21   0x5c  Code  Gb  stm32g4xx_hal_iwdg.o [6]
HAL_IWDG_Refresh         0x800'3c7d    0xc  Code  Gb  stm32g4xx_hal_iwdg.o [6]
HAL_IncTick              0x800'5501   0x10  Code  Wk  stm32g4xx_hal.o [6]
HAL_Init                 0x800'1ed5   0x1e  Code  Gb  stm32g4xx_hal.o [6]
HAL_InitTick             0x800'1e8d   0x44  Code  Wk  stm32g4xx_hal.o [6]
HAL_MspInit              0x800'4405   0x40  Code  Gb  stm32g4xx_hal_msp.o [3]
HAL_NVIC_EnableIRQ       0x800'43b1   0x16  Code  Gb  stm32g4xx_hal_cortex.o [6]
HAL_NVIC_SetPriority     0x800'4375   0x3a  Code  Gb  stm32g4xx_hal_cortex.o [6]
HAL_NVIC_SetPriorityGrouping
                         0x800'435b   0x1a  Code  Gb  stm32g4xx_hal_cortex.o [6]
HAL_PWREx_ControlVoltageScaling
                         0x800'423d   0x52  Code  Gb  stm32g4xx_hal_pwr_ex.o [6]
HAL_RCCEx_PeriphCLKConfig
                         0x800'1a7d  0x20a  Code  Gb  stm32g4xx_hal_rcc_ex.o [6]
HAL_RCC_ADC12_CLK_ENABLED
                        0x2000'1498    0x4  Data  Lc  adc.o [3]
HAL_RCC_ClockConfig      0x800'137f  0x19e  Code  Gb  stm32g4xx_hal_rcc.o [6]
HAL_RCC_GetHCLKFreq      0x800'1587    0x6  Code  Gb  stm32g4xx_hal_rcc.o [6]
HAL_RCC_GetPCLK1Freq     0x800'158d   0x10  Code  Gb  stm32g4xx_hal_rcc.o [6]
HAL_RCC_GetPCLK2Freq     0x800'159d    0xe  Code  Gb  stm32g4xx_hal_rcc.o [6]
HAL_RCC_GetSysClockFreq
                         0x800'1529   0x5e  Code  Gb  stm32g4xx_hal_rcc.o [6]
HAL_RCC_OscConfig        0x800'0fb9  0x3aa  Code  Gb  stm32g4xx_hal_rcc.o [6]
HAL_SPI_Init             0x800'4445   0xde  Code  Gb  stm32g4xx_hal_spi.o [6]
HAL_SPI_MspInit          0x800'23c3   0x8a  Code  Gb  spi.o [3]
HAL_SYSCFG_EnableVREFBUF
                         0x800'1f0b   0x2a  Code  Gb  stm32g4xx_hal.o [6]
HAL_SYSCFG_VREFBUF_HighImpedanceConfig
                         0x800'1efd    0x8  Code  Gb  stm32g4xx_hal.o [6]
HAL_SYSCFG_VREFBUF_VoltageScalingConfig
                         0x800'1ef3    0xa  Code  Gb  stm32g4xx_hal.o [6]
HAL_SYSTICK_Config       0x800'43c7   0x22  Code  Gb  stm32g4xx_hal_cortex.o [6]
HAL_TIMEx_MasterConfigSynchronization
                         0x800'4531   0x84  Code  Gb  stm32g4xx_hal_tim_ex.o [6]
HAL_TIM_Base_Init        0x800'3011   0x1a  Code  Gb  stm32g4xx_hal_tim.o [6]
HAL_TIM_Base_MspInit     0x800'2567   0x38  Code  Gb  tim.o [3]
HAL_TIM_Base_Start       0x800'302b   0x64  Code  Gb  stm32g4xx_hal_tim.o [6]
HAL_TIM_ConfigClockSource
                         0x800'330d   0xc8  Code  Gb  stm32g4xx_hal_tim.o [6]
HAL_TIM_MspPostInit      0x800'259f   0x4c  Code  Gb  tim.o [3]
HAL_TIM_PWM_ConfigChannel
                         0x800'31fb  0x104  Code  Gb  stm32g4xx_hal_tim.o [6]
HAL_TIM_PWM_Init         0x800'30bb   0x1a  Code  Gb  stm32g4xx_hal_tim.o [6]
HAL_TIM_PWM_MspInit      0x800'45f5    0x2  Code  Wk  stm32g4xx_hal_tim.o [6]
HAL_TIM_PWM_Start        0x800'30d5   0xca  Code  Gb  stm32g4xx_hal_tim.o [6]
HAL_UARTEx_DisableFifoMode
                         0x800'1971   0x3c  Code  Gb  stm32g4xx_hal_uart_ex.o [6]
HAL_UARTEx_RxEventCallback
                         0x800'1731    0x2  Code  Wk  stm32g4xx_hal_uart.o [6]
HAL_UARTEx_SetRxFifoThreshold
                         0x800'19c3   0x14  Code  Gb  stm32g4xx_hal_uart_ex.o [6]
HAL_UARTEx_SetTxFifoThreshold
                         0x800'19ad   0x16  Code  Gb  stm32g4xx_hal_uart_ex.o [6]
HAL_UART_DMAStop         0x800'0347   0x7a  Code  Gb  stm32g4xx_hal_uart.o [6]
HAL_UART_ErrorCallback   0x800'1733    0x2  Code  Wk  stm32g4xx_hal_uart.o [6]
HAL_UART_Init            0x800'01d9   0x30  Code  Gb  stm32g4xx_hal_uart.o [6]
HAL_UART_MspInit         0x800'0bcb   0xe4  Code  Gb  usart.o [3]
HAL_UART_Receive_DMA     0x800'02e3   0x28  Code  Gb  stm32g4xx_hal_uart.o [6]
HAL_UART_RxCpltCallback
                         0x800'172d    0x2  Code  Wk  stm32g4xx_hal_uart.o [6]
HAL_UART_RxHalfCpltCallback
                         0x800'172f    0x2  Code  Wk  stm32g4xx_hal_uart.o [6]
HAL_UART_Transmit_DMA    0x800'0259   0x8a  Code  Gb  stm32g4xx_hal_uart.o [6]
HAL_UART_TxCpltCallback
                         0x800'1729    0x2  Code  Wk  stm32g4xx_hal_uart.o [6]
HAL_UART_TxHalfCpltCallback
                         0x800'172b    0x2  Code  Wk  stm32g4xx_hal_uart.o [6]
HardFault_Handler        0x800'5437    0x2  Code  Gb  stm32g4xx_it.o [3]
I2C1_ER_IRQHandler       0x800'56f1         Code  Wk  startup_stm32g431xx.o [1]
I2C1_EV_IRQHandler       0x800'56ed         Code  Wk  startup_stm32g431xx.o [1]
I2C2_ER_IRQHandler       0x800'56f9         Code  Wk  startup_stm32g431xx.o [1]
I2C2_EV_IRQHandler       0x800'56f5         Code  Wk  startup_stm32g431xx.o [1]
I2C3_ER_IRQHandler       0x800'5779         Code  Wk  startup_stm32g431xx.o [1]
I2C3_EV_IRQHandler       0x800'5775         Code  Wk  startup_stm32g431xx.o [1]
ILoop                   0x2000'1414   0x18  Data  Gb  InterruptADC.o [4]
Iac                     0x2000'13fc   0x18  Data  Gb  InterruptADC.o [4]
LL_ADC_GetOffsetChannel
                         0x800'2605    0xe  Code  Lc  stm32g4xx_hal_adc_ex.o [6]
LL_ADC_SetChannelSamplingTime
                         0x800'2625   0x24  Code  Lc  stm32g4xx_hal_adc_ex.o [6]
LL_ADC_SetOffsetState    0x800'2613   0x12  Code  Lc  stm32g4xx_hal_adc_ex.o [6]
LPTIM1_IRQHandler        0x800'572d         Code  Wk  startup_stm32g431xx.o [1]
LPUART1_IRQHandler       0x800'5771         Code  Wk  startup_stm32g431xx.o [1]
MX_ADC1_Init             0x800'2089   0x56  Code  Gb  adc.o [3]
MX_ADC2_Init             0x800'20e9   0x38  Code  Gb  adc.o [3]
MX_DAC1_Init             0x800'22b9   0x5c  Code  Gb  dac.o [3]
MX_DMA_Init              0x800'202d   0x30  Code  Gb  dma.o [3]
MX_GPIO_Init             0x800'1f39   0xd0  Code  Gb  gpio.o [3]
MX_IWDG_Init             0x800'205d   0x2c  Code  Gb  iwdg.o [3]
MX_SPI3_Init             0x800'2379   0x4a  Code  Gb  spi.o [3]
MX_TIM2_Init             0x800'2461   0x5c  Code  Gb  tim.o [3]
MX_TIM3_Init             0x800'24bd   0x92  Code  Gb  tim.o [3]
MX_USART1_UART_Init      0x800'0b69   0x62  Code  Gb  usart.o [3]
MemManage_Handler        0x800'5439    0x2  Code  Gb  stm32g4xx_it.o [3]
NMI_Handler              0x800'5435    0x2  Code  Gb  stm32g4xx_it.o [3]
PLL                     0x2000'13ac   0x1c  Data  Gb  InterruptADC.o [4]
PVD_PVM_IRQHandler       0x800'567d         Code  Wk  startup_stm32g431xx.o [1]
PendSV_Handler           0x800'5443    0x2  Code  Gb  stm32g4xx_it.o [3]
RCC_IRQHandler           0x800'568d         Code  Wk  startup_stm32g431xx.o [1]
RNG_IRQHandler           0x800'576d         Code  Wk  startup_stm32g431xx.o [1]
RTC_Alarm_IRQHandler     0x800'5715         Code  Wk  startup_stm32g431xx.o [1]
RTC_TAMP_LSECSS_IRQHandler
                         0x800'5681         Code  Wk  startup_stm32g431xx.o [1]
RTC_WKUP_IRQHandler      0x800'5685         Code  Wk  startup_stm32g431xx.o [1]
Region$$Table$$Base      0x800'5594          --   Gb  - Linker created -
Region$$Table$$Limit     0x800'55b8          --   Gb  - Linker created -
Reset_Handler            0x800'5659         Code  Wk  startup_stm32g431xx.o [1]
Rtu_write_BlockReg       0x800'4c31    0x2  Code  Gb  comm_table.o [4]
Rtu_write_singleReg      0x800'4c19    0xe  Code  Gb  comm_table.o [4]
SADC                    0x2000'138c   0x20  Data  Gb  InterruptADC.o [4]
SAI1_IRQHandler          0x800'5765         Code  Wk  startup_stm32g431xx.o [1]
SPI1_IRQHandler          0x800'56fd         Code  Wk  startup_stm32g431xx.o [1]
SPI2_IRQHandler          0x800'5701         Code  Wk  startup_stm32g431xx.o [1]
SPI3_IRQHandler          0x800'5731         Code  Wk  startup_stm32g431xx.o [1]
SVC_Handler              0x800'543f    0x2  Code  Gb  stm32g4xx_it.o [3]
SYS                     0x2000'14a4    0x4  Data  Gb  app_var.o [4]
StateM                   0x800'3d05  0x142  Code  Gb  Interrupt200Hz.o [4]
StateM::CapChargedCnt   0x2000'0000    0x1  Data  Lc  Interrupt200Hz.o [4]
StateM::VbusAvgPre      0x2000'0004    0x4  Data  Lc  Interrupt200Hz.o [4]
StateM::su16_cnt5ms     0x2000'0002    0x2  Data  Lc  Interrupt200Hz.o [4]
SysTick_Handler          0x800'5445   0x16  Code  Gb  stm32g4xx_it.o [3]
SystemClock_Config       0x800'18f9   0x74  Code  Gb  main.o [3]
SystemCoreClock         0x2000'0014    0x4  Data  Gb  system_stm32g4xx.o [5]
SystemInit               0x800'55b9    0xc  Code  Gb  system_stm32g4xx.o [5]
TIM1_BRK_TIM15_IRQHandler
                         0x800'56d1         Code  Wk  startup_stm32g431xx.o [1]
TIM1_CC_IRQHandler       0x800'56dd         Code  Wk  startup_stm32g431xx.o [1]
TIM1_TRG_COM_TIM17_IRQHandler
                         0x800'56d9         Code  Wk  startup_stm32g431xx.o [1]
TIM1_UP_TIM16_IRQHandler
                         0x800'56d5         Code  Wk  startup_stm32g431xx.o [1]
TIM2_IRQHandler          0x800'56e1         Code  Wk  startup_stm32g431xx.o [1]
TIM3_IRQHandler          0x800'56e5         Code  Wk  startup_stm32g431xx.o [1]
TIM4_IRQHandler          0x800'56e9         Code  Wk  startup_stm32g431xx.o [1]
TIM6_DAC_IRQHandler      0x800'5739         Code  Wk  startup_stm32g431xx.o [1]
TIM7_IRQHandler          0x800'573d         Code  Wk  startup_stm32g431xx.o [1]
TIM8_BRK_IRQHandler      0x800'571d         Code  Wk  startup_stm32g431xx.o [1]
TIM8_CC_IRQHandler       0x800'5729         Code  Wk  startup_stm32g431xx.o [1]
TIM8_TRG_COM_IRQHandler
                         0x800'5725         Code  Wk  startup_stm32g431xx.o [1]
TIM8_UP_IRQHandler       0x800'5721         Code  Wk  startup_stm32g431xx.o [1]
TIM_Base_SetConfig       0x800'33ef   0xa6  Code  Gb  stm32g4xx_hal_tim.o [6]
TIM_CCxChannelCmd        0x800'37c5   0x16  Code  Gb  stm32g4xx_hal_tim.o [6]
TIM_ETR_SetConfig        0x800'37b1   0x14  Code  Gb  stm32g4xx_hal_tim.o [6]
TIM_ITRx_SetConfig       0x800'3767   0x10  Code  Lc  stm32g4xx_hal_tim.o [6]
TIM_OC1_SetConfig        0x800'3495   0x84  Code  Lc  stm32g4xx_hal_tim.o [6]
TIM_OC2_SetConfig        0x800'3519   0x6e  Code  Gb  stm32g4xx_hal_tim.o [6]
TIM_OC3_SetConfig        0x800'3587   0x72  Code  Lc  stm32g4xx_hal_tim.o [6]
TIM_OC4_SetConfig        0x800'35f9   0x68  Code  Lc  stm32g4xx_hal_tim.o [6]
TIM_OC5_SetConfig        0x800'3679   0x54  Code  Lc  stm32g4xx_hal_tim.o [6]
TIM_OC6_SetConfig        0x800'36cd   0x56  Code  Lc  stm32g4xx_hal_tim.o [6]
TIM_TI1_ConfigInputStage
                         0x800'3725   0x1e  Code  Lc  stm32g4xx_hal_tim.o [6]
TIM_TI2_ConfigInputStage
                         0x800'3743   0x24  Code  Lc  stm32g4xx_hal_tim.o [6]
Temper                   0x800'4c34  0x800  Data  Gb  stm32g4xx_it.o [3]
UART4_IRQHandler         0x800'5735         Code  Wk  startup_stm32g431xx.o [1]
UARTEx_SetNbDataToProcess
                         0x800'1a19   0x3e  Code  Lc  stm32g4xx_hal_uart_ex.o [6]
UARTEx_SetNbDataToProcess::denominator
                         0x800'1a60    0x8  Data  Lc  stm32g4xx_hal_uart_ex.o [6]
UARTEx_SetNbDataToProcess::numerator
                         0x800'1a58    0x8  Data  Lc  stm32g4xx_hal_uart_ex.o [6]
UARTPrescTable           0x800'0b04   0x18  Data  Gb  stm32g4xx_hal_uart.o [6]
UART_AdvFeatureConfig    0x800'069d   0xc6  Code  Gb  stm32g4xx_hal_uart.o [6]
UART_CheckIdleState      0x800'0763   0x5e  Code  Gb  stm32g4xx_hal_uart.o [6]
UART_DMAError            0x800'0ab5   0x4e  Code  Lc  stm32g4xx_hal_uart.o [6]
UART_DMAReceiveCplt      0x800'0a09   0x64  Code  Lc  stm32g4xx_hal_uart.o [6]
UART_DMARxHalfCplt       0x800'0a9d   0x18  Code  Lc  stm32g4xx_hal_uart.o [6]
UART_DMATransmitCplt     0x800'09c1   0x40  Code  Lc  stm32g4xx_hal_uart.o [6]
UART_DMATxHalfCplt       0x800'0a01    0x6  Code  Lc  stm32g4xx_hal_uart.o [6]
UART_EndRxTransfer       0x800'0955   0x28  Code  Lc  stm32g4xx_hal_uart.o [6]
UART_EndTxTransfer       0x800'0911   0x16  Code  Lc  stm32g4xx_hal_uart.o [6]
UART_SetConfig           0x800'0431  0x268  Code  Gb  stm32g4xx_hal_uart.o [6]
UART_Start_Receive_DMA   0x800'0879   0x8c  Code  Gb  stm32g4xx_hal_uart.o [6]
UART_WaitOnFlagUntilTimeout
                         0x800'07c1   0x7a  Code  Gb  stm32g4xx_hal_uart.o [6]
UCPD1_IRQHandler         0x800'5755         Code  Wk  startup_stm32g431xx.o [1]
USART1_IRQHandler        0x800'5705         Code  Wk  startup_stm32g431xx.o [1]
USART2_IRQHandler        0x800'5709         Code  Wk  startup_stm32g431xx.o [1]
USART3_IRQHandler        0x800'570d         Code  Wk  startup_stm32g431xx.o [1]
USBWakeUp_IRQHandler     0x800'5719         Code  Wk  startup_stm32g431xx.o [1]
USB_HP_IRQHandler        0x800'56bd         Code  Wk  startup_stm32g431xx.o [1]
USB_LP_IRQHandler        0x800'56c1         Code  Wk  startup_stm32g431xx.o [1]
UsageFault_Handler       0x800'543d    0x2  Code  Gb  stm32g4xx_it.o [3]
Vac                     0x2000'13c8   0x1c  Data  Gb  InterruptADC.o [4]
VariableInit             0x800'3c89   0x7a  Code  Gb  Interrupt200Hz.o [4]
Vbus                    0x2000'1478    0xc  Data  Gb  InterruptADC.o [4]
Vloop                   0x2000'1454   0x14  Data  Gb  InterruptADC.o [4]
WWDG_IRQHandler          0x800'5679         Code  Wk  startup_stm32g431xx.o [1]
__NVIC_SetPriority       0x800'4341   0x1a  Code  Lc  stm32g4xx_hal_cortex.o [6]
__aeabi_ldiv0            0x800'1ed1         Code  Gb  I64DivZer.o [9]
__aeabi_memset           0x800'42d9         Code  Gb  ABImemset.o [9]
__cmain                  0x800'55d9         Code  Gb  cmain.o [9]
__exit                   0x800'560d   0x14  Code  Gb  exit.o [10]
__iar_Memset             0x800'42d9         Code  Gb  ABImemset.o [9]
__iar_Memset_word        0x800'42e1         Code  Gb  ABImemset.o [9]
__iar_copy_init3         0x800'16f3   0x2a  Code  Gb  copy_init3.o [9]
__iar_data_init3         0x800'5549   0x28  Code  Gb  data_init.o [9]
__iar_init_vfp           0x800'5571         Code  Gb  fpinit_M.o [8]
__iar_program_start      0x800'5621         Code  Gb  cstartup_M.o [9]
__iar_small_uldivmod     0x800'15ed         Code  Gb  I64DivMod_small.o [9]
__iar_zero_init3         0x800'5511   0x38  Code  Gb  zero_init3.o [9]
__low_level_init         0x800'55f7    0x4  Code  Gb  low_level_init.o [7]
__vector_table           0x800'0000         Data  Gb  startup_stm32g431xx.o [1]
_call_main               0x800'55e5         Code  Gb  cmain.o [9]
_exit                    0x800'5601         Code  Gb  cexit.o [9]
about_comm               0x800'3ffb  0x238  Code  Gb  Comm.o [2]
afterReadRegisters       0x800'4c17    0x2  Code  Gb  comm_table.o [4]
afterWriteRegisters      0x800'4c2d    0x2  Code  Gb  comm_table.o [4]
beforeReadRegisters      0x800'4c01    0x2  Code  Gb  comm_table.o [4]
exit                     0x800'55fb    0x4  Code  Gb  exit.o [7]
gu32SysFlag             0x2000'149c    0x4  Data  Gb  app_var.o [4]
gu32_1ms                0x2000'14a0    0x4  Data  Gb  app_var.o [4]
hadc1                   0x2000'1174   0x6c  Data  Gb  adc.o [3]
hadc2                   0x2000'11e0   0x6c  Data  Gb  adc.o [3]
hdac1                   0x2000'142c   0x14  Data  Gb  dac.o [3]
hdma_usart1_rx          0x2000'1024   0x60  Data  Gb  usart.o [3]
hdma_usart1_tx          0x2000'1084   0x60  Data  Gb  usart.o [3]
hiwdg                   0x2000'1468   0x10  Data  Gb  iwdg.o [3]
hspi3                   0x2000'124c   0x64  Data  Gb  spi.o [3]
htim2                   0x2000'12b0   0x4c  Data  Gb  tim.o [3]
htim3                   0x2000'12fc   0x4c  Data  Gb  tim.o [3]
huart1                  0x2000'10e4   0x90  Data  Gb  usart.o [3]
init_sys_var             0x800'2d0d   0x94  Code  Gb  app_var.o [4]
main                     0x800'1735  0x18a  Code  Gb  main.o [3]
main{2}{3}{4}{5}::su16_5ms
                        0x2000'0018    0x2  Data  Lc  main.o [3]
main{2}{3}{4}{5}{6}{7}::su16_100ms
                        0x2000'001a    0x2  Data  Lc  main.o [3]
memset                   0x800'1a69   0x14  Code  Gb  memset.o [9]
rstDMA_rec               0x800'3f33   0x24  Code  Gb  BSP.o [4]
rtu_modbus_master_send   0x800'49c5  0x156  Code  Gb  Modbus.o [2]
rtu_reqframe_anlys_master
                         0x800'4b2b   0x78  Code  Gb  Modbus.o [2]
rtu_reqframe_anlys_slaver
                         0x800'46b7  0x2a4  Code  Gb  Modbus.o [2]
st_Master0_OP           0x2000'13e4   0x18  Data  Gb  Comm.o [2]
st_comm                 0x2000'1348   0x44  Data  Gb  Comm.o [2]
u16_CommVar              0x800'5668    0x8  Data  Gb  app_var.o [4]
u8_RecBuf0              0x2000'0820  0x804  Data  Gb  Comm.o [2]
u8_SendBuf0             0x2000'001c  0x804  Data  Gb  Comm.o [2]
u8_modbus_check_is_right
                         0x800'45f7   0x52  Code  Gb  Modbus.o [2]
uc_RTU_write_bit         0x800'4c33    0x2  Code  Gb  comm_table.o [4]
ui_RTU_ret_Block         0x800'4c2f    0x2  Code  Gb  comm_table.o [4]
ui_RTU_ret_Word          0x800'4c03   0x14  Code  Gb  comm_table.o [4]
uwTick                  0x2000'0008    0x4  Data  Gb  stm32g4xx_hal.o [6]
uwTickFreq              0x2000'0010    0x4  Data  Gb  stm32g4xx_hal.o [6]
uwTickPrio              0x2000'000c    0x4  Data  Gb  stm32g4xx_hal.o [6]
write_bit_by_plc         0x800'4649   0x3a  Code  Gb  Modbus.o [2]
write_word_by_plc        0x800'4683   0x28  Code  Gb  Modbus.o [2]


[1] = D:\work\MCU\Porg\CVD\PFC2L28070G431\EWARM\PFC2L28070G431\Obj\Application\EWARM
[2] = D:\work\MCU\Porg\CVD\PFC2L28070G431\EWARM\PFC2L28070G431\Obj\Application\TH_LIB
[3] = D:\work\MCU\Porg\CVD\PFC2L28070G431\EWARM\PFC2L28070G431\Obj\Application\User\Core
[4] = D:\work\MCU\Porg\CVD\PFC2L28070G431\EWARM\PFC2L28070G431\Obj\Application\User\PFC
[5] = D:\work\MCU\Porg\CVD\PFC2L28070G431\EWARM\PFC2L28070G431\Obj\Drivers\CMSIS
[6] = D:\work\MCU\Porg\CVD\PFC2L28070G431\EWARM\PFC2L28070G431\Obj\Drivers\STM32G4xx_HAL_Driver
[7] = dl7M_tln.a
[8] = m7M_tls.a
[9] = rt7M_tl.a
[10] = shb_l.a

  20'282 bytes of readonly  code memory
   2'130 bytes of readonly  data memory
   6'316 bytes of readwrite data memory

Errors: none
Warnings: none
