:020000040800F2
:10000000B01800205956000835540008375400082D
:10001000395400083B5400083D540008000000001B
:100020000000000000000000000000003F54000835
:1000300041540008000000004354000845540008E3
:10004000795600087D56000881560008855600083C
:10005000895600088D5600089156000895560008EC
:10006000995600089D560008A1560008A55600089C
:10007000A9560008AD560008B1560008B55600084C
:10008000B9560008000000005B540008BD56000887
:10009000C1560008C5560008C9560008CD560008CC
:1000A000D1560008D5560008D9560008DD5600087C
:1000B000E1560008E5560008E9560008ED5600082C
:1000C000F1560008F5560008F9560008FD560008DC
:1000D0000157000805570008095700080D57000888
:1000E0001157000815570008195700081D57000838
:1000F0002157000825570008295700080000000074
:10010000000000002D5700080000000031570008D3
:100110003557000800000000395700083D57000817
:100120004157000845570008495700084D57000837
:10013000515700080000000000000000555700085B
:10014000595700085D57000800000000000000003B
:10015000000000000000000000000000000000009F
:1001600000000000000000000000000061570008CF
:1001700065570008000000000000000000000000BB
:1001800000000000695700080000000000000000A7
:10019000000000000000000000000000000000005F
:1001A00000000000000000006D57000871570008B3
:1001B00075570008795700087D57000800000000B7
:1001C000000000008157000800000000000000004F
:1001D000855700088957000838B5040009D004F194
:1001E0008005696809B900F01EF800F021F80128BF
:1001F00001D1012032BDA06A08B100F02AF800F058
:100200000AF821F02A01FFE7816000F01BF8BDE841
:10021000324000F0A6BA2068416821F49041416064
:1002200020688168704700202870204600F0CDBC0F
:10023000242169602068026852085200026020464A
:1002400000F0F6B82068016841F001010160204625
:100250007047204600F022BA70B5044604F18005CC
:100260001346686820283AD151B3180028D028785E
:10027000012834D001222A7004F15406216533800C
:1002800073800020E86021216960706AD0B1DFF8D6
:100290008411C162DFF88001716A0863716ADFF856
:1002A0007C0148630020716A88632068216D00F139
:1002B0002802706A00F0A9FD20B100F023FB6A60FB
:1002C000012070BD21684020086200222A7000F0E1
:1002D00077F841F0800100F07EF8F8D170BD02207F
:1002E00070BD38B500F011F80DD109B1140001D17D
:1002F000012032BD0478012C05D000F00CF8BDE8D7
:10030000384000F0B9BA022032BD034603F1800044
:100310008468202C7047012505700020D866DFF81E
:1003200000411868A0420CD04068040209D5186842
:1003300050E8004F054644F0806445E8004000283E
:10034000F5D11846704770B5054605F1840420685C
:10035000666829688A68110616D5212814D128688C
:1003600000F1080151E8001F00F039F8F7D1A86F3B
:1003700038B100F08EFD20B1A86F00F0C3FD202839
:1003800015D0284600F0C4FA28688168480615D5BB
:10039000222E13D100F031F8FCD1E86F58B100F0F3
:1003A00078FD40B1E86F00F0ADFD202803D11020AA
:1003B000A060032070BD284600F0CCFA002070BD7C
:1003C000206800F1080151E8001F00F108037047A0
:1003D000DFF8C402014043E800100028704700F134
:1003E000080321F0800143E800100028704721F441
:1003F000F07142E8001000287047286800F10801F9
:1004000051E8001F00F1080321F0400143E800100B
:1004100000287047C1090008010A0008B50A000851
:100420000080004023F4807344E8003000287047C7
:10043000F8B50446DFF8040722681368A168034092
:1004400020690B4361690343E0690B430343136075
:1004500000255168E06821F4405101435160A369CF
:10046000DFF8DC168A421CBF206A03439668DFF877
:10047000D406DFF8D4E6DFF8D47606403343936041
:100480000FF28066D36A606A1B0940EA0313D362E5
:100490007245DFF8BC064FF400433ED13F6807F0D9
:1004A0000307032F47D8DFE807F00289789D4FF054
:1004B000010CE169B1F5004F4FF6F07740F0B480E0
:1004C000BCF1000F0FD0BCF1010F00F0A580BCF112
:1004D000020F0CD0BCF1040F00F0A180BCF1080F9A
:1004E00000F0A080CDE001F051F8002814D0626A3D
:1004F000616836F81230B0FBF3F04A0802EB4002B4
:10050000B2FBF1F0A0F11001B942EBD20740C0F309
:10051000420007432068C760B4E0DFF838C6624590
:100520002CD13F6817F00C075AD0042F46D0082F63
:1005300033D00C2F56D04FF0100C8A42B9D1BCF1F9
:10054000000F09D0BCF1020F0AD0BCF1040F4CD04F
:10055000BCF1080F4CD094E001F018F80028DBD073
:10056000616A36F81120B0FBF2F6626802EB4201D4
:100570008E4202D31303B3423CD282E0DFF8D8C5E7
:1005800062450DD13F6817F0300729D0102F15D0E4
:10059000202F02D0302F25D0CDE74FF0020CCCE732
:1005A000DFF8B8C562450CD13F6817F0C00717D017
:1005B000402F03D0802FF0D0C02FECE74FF0040C79
:1005C000BBE78A42B7D13F6817F4406708D0B7F558
:1005D000806FF3D0B7F5006FDFD0B7F5406FDAE783
:1005E000AC46AAE74FF0080CA7E700F09DFFB5E77F
:1005F0001846B5E75008002110EB062051EB1661B4
:10060000002300F0F3FFA0F54076DFF85475BE42FA
:1006100037D22168C86035E000F0C0FF65E700F020
:1006200083FF62E7184662E7BCF1000F0CD0BCF113
:10063000010F1ED0BCF1020F09D0BCF1040F1BD07A
:10064000BCF1080F1BD01CE000F0A0FFD0B1626A23
:1006500036F812306168B0FBF3F000EB5100B0FBEC
:10066000F1F0A0F11001B9420BD2226880B2D06043
:1006700008E000F093FFE9E700F056FFE6E71846D0
:10068000E5E7012504F16800012100234180018094
:100690008360C3602846F2BDFEFF7FEF90F828100C
:1006A000CA0706D502685368C16A23F400330B43B6
:1006B000536090F828108A0706D502685368016BCA
:1006C00023F480330B43536090F828104A0706D573
:1006D00002685368416B23F480230B43536090F806
:1006E00028100A0706D502685368816B23F400437B
:1006F0000B43536090F82810CA0606D50268936829
:10070000C16B23F480530B43936090F828108A0642
:1007100006D502689368016C23F400530B43936081
:1007200090F828104A0610D502685368416C23F4EB
:1007300080130B435360436CB3F5801F05D153689E
:10074000816C23F4C0030B43536090F828100A0611
:1007500006D501684A68C06C22F4002202434A6050
:100760007047F8B5044604F180050020E8606FF09A
:100770007E4700F0D3FF0646206801680A0708D5C7
:100780000097334600224FF40011204600F018F87D
:1007900060B9206801684A070AD5009733460022ED
:1007A0004FF48001204600F00BF808B10320F2BDA1
:1007B000202068602021A9600020E0662870F2BD3A
:1007C0002DE9F041069C05460E4690461F462868D6
:1007D000C1693140B1420CBF01200020404529D100
:1007E00014F1010FF3D000F099FFC01B844200D335
:1007F0004CB900F029F800F032F8FCD100F01DF8F7
:100800000021017014E0286801684A07DFD5C1693A
:100810000805DCD52A684FF40061116200F014F875
:1008200000F01DF8FCD100F008F8C1600022027051
:10083000032000E00020BDE8F08105F180002021C8
:100840004160202282607047286850E8001F0246FD
:1008500021F4D07142E800100028F5D170472868D3
:1008600000F1080151E8001F490800F108034900A0
:1008700043E8001000287047F8B5044604F15C0610
:100880001346A16504F1800533800020E860222131
:10089000A960306AD0B10FF27111C1620FF2FD1080
:1008A000316A0863316A0FF20D2048630020316A13
:1008B00088632768A26D306A07F1240100F0A5FA69
:1008C00020B100F01FF8AA600120F2BD00212970BC
:1008D000206940B1216851E8001F226841F480710D
:1008E000FFF787FDF6D1FFF76BFD41F00101FFF740
:1008F00072FDF8D1FFF764FD41F04001FFF76BFD99
:10090000F8D1F2BD1020E860002129702022704744
:1009100010B500F008F8FCD100F00FF8FCD1202150
:10092000C0F8841010BD016851E8002F0B4622F07A
:10093000C00243E8002100297047016801F1080264
:1009400052E8002F01F1080422F4000244E80021DB
:100950000029704710B500F011F8FCD100F018F82C
:10096000FCD1C16E012902D100F020F8FCD1202178
:10097000C0F888100022C266026710BD016851E805
:10098000002F0B4622F4907243E8002100297047A3
:10099000016801F1080201F1080452E8002FDFF8B4
:1009A000C4110A4044E8002100297047026852E857
:1009B000002F036822F0100243E80021002970474D
:1009C00010B50146886A09680A68930614D40021A4
:1009D000A0F85610026802F1080151E8002F0368E0
:1009E00003F1080422F0800244E800210029F1D13B
:1009F00000F094F8FCD110BDBDE8104000F094BEAA
:100A0000806A00F092BE000038B5826A0068036810
:100A10009C0602F15C011ED400204880136853E854
:100A2000003F1468FFF7FEFCF8D1106800F01EF8D4
:100A3000FBD1106800F026F8FBD12020C8620B69BA
:100A4000012B08D1106850E8003F044623F0100342
:100A5000FFF7EAFCF6D10B69012B02D10988104699
:100A600067E0BDE83240104600F060BE00F10803C8
:100A700053E8003F5B0800F108055B0045E80030E3
:100A80000028704700F1080353E8003F00F1080513
:100A900023F0400345E8003000287047806A00F1E9
:100AA0005C010A69012A18BF00F041BE09884908A3
:100AB00000F03EBEF8B5846A04F1840504F15607DF
:100AC00028686E6821688A68110606D5212804D135
:100AD000002038802046FFF71BFF21688868410608
:100AE00006D5222E04D1002038812046FFF732FFA0
:100AF000A86840F01000A8602046BDE8F24000F071
:100B000018BE0000010002000400060008000A00F0
:100B10000C0010002000400080000001016851E836
:100B2000002F0B4642F0400243E8002100297047A5
:100B30001188BDE8344000F0FBBD0000F369FFCF31
:100B400000800040FFF4FF1100380140881002408F
:100B50000024F4000044004000480040004C0040E5
:100B600000FD0F00FEFFFFEF10B5514C5148206013
:100B70004FF4E1314FF40050E06000220C2060613E
:100B80006160A2602261A261E26122626262A2628D
:100B90002046FFF721FB08B100F0E8FE00212046C7
:100BA00000F004FF08B100F0E1FE0021204600F053
:100BB00008FF08B100F0DAFE204600F0D9FE18B1B7
:100BC000BDE8104000F0D2BE10BD78B597B0044625
:100BD0001422002101A800F047FF4422002106A8AA
:100BE00000F042FF2068334988425ED10122002193
:100BF0000692079106A800F041FF08B100F0B6FE8A
:100C00002D482E4D41692E4E41F48041416141698C
:100C100001F4804100910099026842F001020260F3
:100C20004FF4C061006800F00100009002220098BB
:100C3000019102920021039104914FF0904007210D
:100C4000059101A901F02EF8182068600021A96023
:100C50000020E86080216861A861E861286229615C
:100C60002E60284600F02EF808B100F07FFE06F155
:100C700014001921E567286669661020A86600211E
:100C800080202867E9666967A967E967C5F8801069
:100C9000AC6205F1600000F015F808B100F066FEE6
:100CA00005F16000A067C5F8884018B070BD00006D
:100CB000E4100020003801404C10024024100020B5
:100CC0000800024038B5040001D1012032BD21687E
:100CD000DFF8C022914204F1240500F07DF80221E2
:100CE000697020680268A068E16823686FF30E12DB
:100CF000024320690A4361690243A0690A43E1692A
:100D00000243206A0A4302431A60204600F018F9A1
:100D1000A068B0F5804F04BF00216160696A207946
:100D200000F04DF838B1052805D2204600F023F92F
:100D300000F04BF803E0002028636863A8630021FB
:100D4000A961012068702970002032BD38B5040007
:100D500001D1012032BD2068DFF83822016849083E
:100D60004900016004F124052168914200F034F843
:100D7000002120680160012295F82010E86901F047
:100D80001F018A404260204600F0DAF8696A0020BC
:100D900000F015F830B1052804D2204600F0EBF839
:100DA00000F013F80020002128636963A863A9609C
:100DB000E86029616861A9616870297032BD0860C6
:100DC000A96AE86A486060687047296B002008607B
:100DD000696BA86B486070470BD2DFF8BC01411803
:100DE0001423B1FBF3F18900DFF8B0212962EA6135
:100DF0007047DFF8AC0141181422B1FBF2F1890011
:100E0000DFF8A0012962E8617047F8B5044604F1F3
:100E1000240600253078012801D10220F2BD0120EE
:100E200030707778012F30D1022070700027B761C1
:100E30002068D0F800C04FEA5C074FEA470CC0F8C2
:100E400000C0204600F060F82168F06820B10A6810
:100E500042F00E020A6008E0086820F00400086012
:100E60002068016841F00A010160706A0168CA03E4
:100E700001D500F042F8306B08B100F03EF8206870
:100E8000016841F00101016001E03570022528464A
:100E9000F2BD10B500F1240200215378022B03D0DB
:100EA00004209061012122E003681C6824F00E04F4
:100EB0001C60536A1C6824F480741C60006803681A
:100EC0005B085B000360012092F82030D46903F0D6
:100ED0001F0398406060936AD06A5860106B30B10D
:100EE000036823F480730360506B936B43600123AA
:100EF000537000201070084610BD016841F48071E5
:100F000001607047C06B704770B5C56C046D6C6054
:100F1000446D14B1856DC46D6C60012490F844502B
:100F2000066C05F01F05AC4074600468636080685F
:100F3000102802D1A260E16070BDA160E26070BDC6
:100F400010B50168134B184A994228BF2032446CEF
:100F500001F0FF01A4080839142302EB8402B1FB5D
:100F6000F3F18264012301F01F01104AC26403FA05
:100F700001F1016510BD01790D4A0E4B836502EB4D
:100F800081024265491E012201F01F018A40C265AB
:100F90007047000008040240F8FFFDBF0000024057
:100FA000F8FBFDBF00040240000802408008024038
:100FB000FC080240400902402DE9F84304006DD0CE
:100FC0002078DFF8F065C10717D500F0D2F90CD111
:100FD00001F0030103290AD06068B0F5803F2AD1EF
:100FE000306840F48030306037E00828F4D1306851
:100FF000810302D56068002850D02178880759D530
:1010000000F0B7F943D101F00301022941D0E068B3
:1010100000286AD0316841F48071316000F07EFBB5
:101020000546306841055DD400F078FB401B03287D
:10103000F7D3032093E1B0F5A02F306806D140F438
:1010400080203060316841F4803105E020F4803048
:101050003060316821F480213160606858B100F05F
:101060005DFB054630688103C7D400F057FB401B89
:101070006528F7D3DDE700F051FB054630688103B2
:10108000BBD500F04BFB401B6528F7D3D1E7042804
:10109000BDD13068410503D5E068002800F05C81CF
:1010A00000F05FF9DFF81805006800F0EFFE002897
:1010B00040F052812078DFF80C75010734D5606963
:1010C0000028786821D040F00100786000F026FB0D
:1010D00005467868810727D400F020FB401B0328D1
:1010E000F7D3A6E700F03DF9E4E7306820F480701C
:1010F000306000F013FB054630684105DAD500F09A
:101100000DFB401B0328F7D393E7400840007860AD
:1011100000F004FB05467868810705D500F0FEFA6B
:10112000401B0328F7D384E72078410763D5B06DCF
:101130000025C10009D4B06D40F08050B065012594
:10114000B06D00F0805000900098DFF87C84D8F8F3
:101150000000C10513D4D8F8000040F48070C8F82E
:10116000000000F0DBFA8146D8F80000C10506D483
:1011700000F0D4FAA0EB09000328F5D359E7A068E2
:10118000012804D1386840F00100386010E00528DB
:10119000386806D140F004003860396841F0010138
:1011A00005E0400840003860396821F004013960EA
:1011B000A06841F2893860B100F0B0FA8146386821
:1011C000810713D400F0AAFAA0EB09004045F6D33A
:1011D0002FE700F0A3FA81463868810706D500F0B2
:1011E0009DFAA0EB09004045F6D322E71DB1B06D92
:1011F00020F08050B0652078810621D5A0690028B4
:10120000B8680ED040F00100B86000F087FA0546DB
:10121000B868810714D400F081FA401B0328F7D383
:1012200007E740084000B86000F078FA0546B86863
:10123000810705D500F072FA401B0328F7D3F8E6C2
:10124000E069002800F08A80B16801F00C010C29E7
:1012500055D00228306820F0807030603AD100F01C
:101260005DFA05463068810105D500F057FA401B4C
:101270000328F7D3DDE6F068DFF85013226A084050
:10128000616A1043491E40EA0110226BA16A5208AC
:1012900040EA0120616B521E490840EA4250491E53
:1012A00040EA4160E16A40EAC160F060306840F0C5
:1012B00080703060F16841F08071F16000F02EFACA
:1012C00004463068810149D400F028FA001B032845
:1012D000F7D3AEE6F168DFF8F80289088900F1601B
:1012E000F1680140F16000F019FA044630688101AC
:1012F00034D500F013FA001B0328F7D399E6012830
:101300002AD0F068226A00F00301914201BF00F088
:10131000F0011031626AB1EB021F1DD1A26A00F424
:10132000FE41B1EB022F02BF00F07841E26AB1EB5F
:10133000C26F11D1226B00F4C00101F500115208F7
:10134000B1EB425F08D1616B00F0C06000F100704A
:101350004908B0EB416F01D0012000E00020BDE85A
:10136000F2837068216920F0FE4040EA01607060FD
:101370007047B068F16800F00C000C2870472DE948
:10138000F84F04460026002C6CD0DFF8487238680D
:10139000894600F00F00484506D200F0BFF83868D3
:1013A00000F00F0048455DD12168DFF80852C807FA
:1013B00041F2893858D56068DFF81CB203284FF035
:1013C000080A27D1286882014CD5EA68E868C0F38A
:1013D0000310401C02F00302032A0CBFDFF8FC21BB
:1013E000DFF8D821B2FBF0F2E868C0F306204243F0
:1013F000E868C0F34160401C4000B2FBF0F0584583
:1014000016D3AA6812F0F00F0DD0890710D5A06886
:1014100070B908E00228286822D1810322D500F0A3
:1014200083F8584504D3A8686AF30710A86080269B
:10143000A9686068890840EA8101A96000F06EF936
:101440008246A868616800F00C00B0EB810F0BD0F9
:1014500000F064F9A0EB0A004045F2D303205BE002
:101460004105DCD4012057E02068810714D54007EE
:1014700003D5A96841F4E061A9602078010704D58B
:10148000A968072060F30D21A960A968A06821F070
:10149000F0010143A96005E0802E03D1A86820F087
:1014A000F000A860386800F00F0081450FD200F00E
:1014B00035F800F033F90646386800F00F0048456B
:1014C00005D000F02BF9801B4045F5D3C6E7207806
:1014D000410705D5AA68E06822F4E0620243AA60E9
:1014E0002178080706D5A968206921F4605141EAEE
:1014F000C001A96000F018F8AA683949C2F30312C4
:10150000895C2D4A01F01F01C8401060BDE8F24F10
:101510002B48006800F0BABCBDE8F28F39680909B1
:1015200049EA0111396070472E49086800F00C0043
:10153000042801D121487047086800F00C000828F1
:1015400001D126487047086800F00C000C2818D11B
:101550004A684868C0F30310401C02F00302032AE3
:101560000CBF1E4A154AB2FBF0F24868C0F30620D1
:1015700042434868C0F34160401C4000B2FBF0F0B9
:101580007047002070470C48006870470A48154AA9
:10159000006813681449C3F3022206E00648114AA2
:1015A000006813681049C3F3C222895C01F01F016F
:1015B000C840704700100240140000200024F400CE
:1015C0000C00002090100240007000400C809F0131
:1015D000FFFFEEFE0020024001B4C40440787D010C
:1015E000C85500080810024070560008D3BBD9B196
:1015F000B2F5803F5BD2022A1ED98C46B1FBF2F1D4
:1016000002FB11C31B0443EA1043B3FBF2FC02FBD1
:101610001C3380B240EA0343B3FBF2F002FB10320A
:1016200040EA0C4000237047022A05D98446B0FBEB
:10163000F2F002FB10C270474AB105D100F001027E
:1016400049085FEA3000704700220023704700F02D
:101650003FBC0B000200002100207047F7D300229E
:1016600000237047904271EB030CF2D370B5B1FACE
:1016700081F4B3FA83F52C1BA340C4F1200532FAA0
:1016800005F63343A2405FF00046E64002E05B0807
:101690005FEA3202841A71EB030524BF2046294613
:1016A0007641F4D302000B003000002170BD70B50C
:1016B000B1FA81F4B2FA82F5C4F120046419B4F1EC
:1016C0002006DAD3B2405FF00044F440002502E087
:1016D00052085FEA3303C61A71EB020E24BF30468C
:1016E000714664416D41F3D302000B0020002900D4
:1016F00070BD0EE002684368024408305FEAC37CB4
:1017000044BF4B445B1E52F804CB43F804CB091F83
:10171000F9D150F8041B0029ECD17047014800684A
:10172000704700BF0800002070477047704770473F
:10173000704770472DE9F84F00F0CCFB00F0DCF863
:101740005F48604C604E614FDFF88481614DDFF887
:101750008891FFF7FBFA00F0EFFB00F067FC00F068
:101760007DFC00F091FC00F0BFFC00F0A5FD00F056
:1017700003FE00F075FEFFF7F7F900F09FFE04206E
:1017800020604021216030467F2100F05DFF7F21F5
:10179000384600F059FF01F0B9FAB8F80820D8F837
:1017A0000C104E48FEF79DFD0021284601F00CFB71
:1017B0001021284601F008FB0023002200212846C2
:1017C00001F037FB0023002210212846444D01F090
:1017D00030FB296846F2915048634FF4804A28460E
:1017E00001F023FC0021284601F074FC30683D4DD7
:1017F000416841F0040141604FF4805B3868416802
:1018000041F004014160304602F0D8F8384602F059
:10181000D5F8304600F05EFF384600F05BFF3248F6
:10182000324F0068016841F040010160484602F013
:1018300025FA02F029FA4FF4005607E0C5F814B073
:10184000C4F810A02661484602F018FA3868B0F5CE
:10185000FA7FF3D3C5F804B0C4F800A0C4F800B010
:101860002660234C234E3068C107FCD53068400801
:1018700040003060484602F001FA02F0B3FB3868DD
:1018800080B202F096FB396889B2404602F0B5FB9F
:101890002088401E208080B20028E4D105202080CE
:1018A00002F0D1FA02F02EFA6088401E81B221B90E
:1018B000296881F480510A2029606080D3E7000004
:1018C000841000201804004874110020E01100204A
:1018D000481300202C14002068140020E41000207D
:1018E000FC120020140000484C120020A01400201C
:1018F000180000209C14002000B593B0382200216D
:1019000005A800F0B1F814220021684600F0ACF8F8
:10191000002002F093FC092105914FF4803201214F
:1019200006920A91022203210C920D910522442174
:101930000E920F910622022110921191129105A888
:10194000FFF73AFB08B100F011F80F2003210090D7
:101950000191002202920392049204216846FFF74B
:101960000EFD08B100F002F813B000BD72B6FEE73C
:1019700010B500F180010A78012A01D1022010BDC2
:1019800001220A7024234B600268136814686408FB
:10199000640014600022426623F000530068036074
:1019A00020224A6000230B70002010BD70B500F0AB
:1019B0001FF801D1022070BD00F020F822F0604233
:1019C00009E070B500F014F801D1022070BD00F0FC
:1019D00015F822F0606211438160204600F01CF887
:1019E000206806602021696000222A70002070BDF6
:1019F000044604F1800528780128704701202870EA
:101A000024226A6020680668026852085200026058
:101A1000206882687047000030B5416E11B901211D
:101A2000012214E0016800BF0BA48A68D1F80810F5
:101A30000BA3520E02F00702490F655CA45C595CCF
:101A40009A5CED00E40095FBF1F194FBF2F2683052
:101A50004180028030BD0000010101030701000048
:101A6000080402040801010110B5044610460A46A4
:101A70000146204602F030FC204610BD2DE9F84317
:101A800005464FF000082868DFF80C62010353D5C3
:101A9000F06C0024C10009D4F06C40F08050F06478
:101AA0000124F06C00F0805000900098DFF8EC7199
:101AB000386840F480703860FFF730FE814638683F
:101AC000C10508D4FFF72AFEA0EB09000328F6D3CE
:101AD0004FF003082BE0DFF8C871386810F440704D
:101AE0001CBF296C88420BD03868396841F48031BA
:101AF000396020F440703A6822F480323A603860ED
:101B0000C0070ED5FFF70AFE81463868810708D462
:101B1000FFF704FEA0EB090041F289318842F4D3BB
:101B2000D6E73A68286C22F4407202433A601CB14E
:101B3000F06C20F08050F0642878C10705D5F26F72
:101B40006868920840EA8202F2672978880705D51A
:101B5000F16FA86821F00C010143F167297848076B
:101B600005D5F16FE86821F030010143F16729786C
:101B7000080705D5F16F286921F0C0010143F1671D
:101B80002978880605D5F16F686921F44061014321
:101B9000F1672978480605D5F16FA86921F440510D
:101BA0000143F1672978080605D5F16FE86921F44A
:101BB00040410143F1672968C80505D5F16F286ADE
:101BC00021F440310143F1672968880505D5F16F9B
:101BD000686A21F440210143F167296848050AD564
:101BE000F16FA86A21F440110143F167A96AB1F5C8
:101BF000801F00F04AF8296808050AD5F16FE86AE5
:101C000021F440010143F167E96AB1F5800F00F06A
:101C10003CF82968C8040AD5F16F286B21F040719F
:101C20000143F167296BB1F1807F00F02EF829683C
:101C3000880408D5F16F686B21F040610143F167BA
:101C4000696B00F020F82968480408D5F16FA86B8B
:101C500021F040610143F167A96B00F014F8296895
:101C600008040DD5F16FE86B21F040510143F16795
:101C7000E96BB1F1805F03D1306840F480303060AF
:101C80004046BDE8F283B1F1006F03D1306840F403
:101C900080103060704700000C100240007000405F
:101CA000901002402DE9F84F0027704A704B4FF01A
:101CB0000F0805460E4638E06E4CA54214BF0624B8
:101CC00005248C406C4944EA0E0441F82C40C14381
:101CD000D2F808C0746801EA0C0CE40248BF40EA7C
:101CE0000C0CC2F808C0D2F80CC0746801EA0C0CE5
:101CF000A40248BF40EA0C0CC2F80CC0D2F804C0E1
:101D0000746801EA0C0CA40348BF40EA0C0CC2F84A
:101D100004C0D2F800C001EA0C0C7168C90348BFC6
:101D200040EA0C0CC2F800C07F1C316831FA07F0A1
:101D300000F094800124BC4014EA0100F4D04FEA82
:101D4000470C032101FA0CF16FEA010E716801F0F2
:101D50000309B9F1010F1CBF01F00301022912D1DF
:101D6000A968D6F80C900EEA010109FA0CF949EAC3
:101D70000101A960696821EA04047168C1F30011D6
:101D8000B9400C436C60B900347904F00304032CAF
:101D900021D0EC68D6F808900EEA040409FA0CF990
:101DA00049EA0404EC60347904F00304022C12D1F3
:101DB000FC0805EB840401F01C09D4F820A008FA03
:101DC00009FB2AEA0B0AD6F810B00BFA09F949EA1E
:101DD0000A09C4F820902C680EEA040E347904F045
:101DE000030404FA0CF444EA0E0CC5F800C074684D
:101DF00014F4403F98D0D3F800C01F4C4CF0010CB5
:101E0000C3F800C04FEA970CD3F800E00EF0010EC3
:101E1000CDF800E001F00C01DDF800E054F82C40B2
:101E200008FA01FE24EA0E0EB5F1904F08BF002417
:101E300013D0124CA54208BF01240ED0104CA5426D
:101E400008BF022409D00F4CA54208BF032404D0C8
:101E50000D4CA5427FF430AF042432E7BDE8F18F8A
:101E60000AB181617047816270470000000401403F
:101E700060100240001400480800014000040048BF
:101E800000080048000C00480010004870B50E4ED5
:101E90000446B0680025A0B14FF47A710B4AB1FB3B
:101EA000F0F11068B0FBF1F002F08DFA48B9102C97
:101EB00007D2002221464FF0FF3002F05BFA746037
:101EC00000E00125284670BD080000201400002015
:101ED00070470000032010B502F03FFA0F20FFF713
:101EE000D5FF0024002814BF012402F08BFA2046FD
:101EF00010BD10490A6822F0300203E00D490A685B
:101F000022F0020210430860704738B5094C20687F
:101F100040F001002060FFF701FC05462068010742
:101F200006D4FFF7FBFB401B0B28F7D3032032BD81
:101F3000002032BD3000014010B586B014220021CF
:101F40006846FFF791FD3048304C016841F02001B0
:101F50000160026802F0200205920599026842F0D1
:101F600001020260036803F001030593059902680A
:101F700042F002020260036803F002030593059930
:101F8000026842F0040202600122006800F00400CE
:101F9000059047F2440105982046FFF761FF0122B2
:101FA0004FF418414FF09040FFF75AFF47F20401F9
:101FB00000F02EF869462046FFF774FE01220192D8
:101FC00002924FF400610091002200F028F84FF4D3
:101FD000805100F01DF800F023F8012201920292D6
:101FE0004FF400410091022200F019F840210091C5
:101FF000112201920121029100220392694620469A
:10200000FFF750FE06B010BD4C100240000400481F
:1020100000911122002102910391019270470392D5
:1020200069464FF09040FFF73DBE00000A4881B07E
:10203000016841F004010160026802F004020092AC
:102040000099026842F001020260006800F001009D
:102050000090009801B070474810024080B50848D1
:1020600008490160002240F6FF714260C160816052
:1020700001F0D6FD18B1BDE80140FFF777BC01BD06
:10208000681400200030004010B592B00C220021EE
:102090000FA8FFF7E9FC00F022F87D4C4FF0A040BC
:1020A00000F03EF8042100F04BF808B1FFF75EFCA9
:1020B00000200F900FA9204600F0A9FD08B1FFF7FE
:1020C00055FC744900F04EF808B1FFF74FFC724917
:1020D00000F02EF808B1FFF749FC12B010BD3C2209
:1020E00000216846FFF7C0BC18B58FB0FFF7F7FFB7
:1020F0006A4C6B4800F014F8082100F021F808B190
:10210000FFF734FC674900F02DF808B1FFF72EFC0B
:10211000654900F00DF808B1FFF728FC10B010BDBC
:10212000206000216160E1602161012060617047F1
:10213000009140F20F1201926946204600F030BB38
:10214000A16104F12400002201214FF48053A26018
:1021500022776177216202700275836102772046DF
:1021600001F03EBB0091092201210291019204215C
:1021700004917F2202210891039209A801210022E3
:1021800001730592ADF824208270426082602021A4
:102190001022416102616946204600F001BB78B51A
:1021A00097B004461422FFF79BFF4422002106A8A3
:1021B000FFF75AFC20683D4E3D4CB0F1A04F4FF068
:1021C00080514FF4004512D100F04BF808B1FFF7F1
:1021D000CDFB00F04BF8032200F03DF80092019295
:1021E00021600022029269464FF0904027E02C4A7D
:1021F00090422ED100F035F808B1FFF7B7FB00F0A0
:1022000035F800F028F8326842F00202326080228D
:10221000336803F0020305930323059800922160BD
:1022200000220193029269464FF09040FFF73AFD79
:102230000321019100220095029269461D48FFF793
:1022400031FD00220021122002F094F8122002F049
:10225000AFF818B070BD306800F001000590059827
:1022600070471591069506A8FFF708BC2168491C20
:10227000012908D1306840F400503060326802F41F
:10228000005205920598326842F0010232607047B0
:10229000741100200200300404006008E0110020E6
:1022A000000100501000C0100080F03E4C100240B1
:1022B000981400200004004810B58CB03022002192
:1022C0006846FFF7D1FB294C29482060204600F0E2
:1022D00067FD08B1FFF74AFB0021ADF80410029139
:1022E00004910220012100900022069103920592A0
:1022F00007926946204600F0AEFD08B1FFF736FBB5
:1023000010226946204600F0A6FD08B1FFF72EFB1B
:102310000CB010BD10B586B004461422002101A8EF
:10232000FFF7A2FB2168124881421DD111480168C4
:1023300041F480310160026802F480320092009919
:10234000026842F0010202603021006800F00100E2
:1023500000900322009801910292002103914FF016
:10236000904001A9FFF79EFC06B010BD2C14002080
:10237000000800504C10024080B5344834490160D8
:102380004FF482724FF470614260C16002220121F9
:10239000026141614FF4007230218261C16100230A
:1023A000802207218360026243628362C162036309
:1023B000436302F047F818B1BDE80140FFF7D6BA11
:1023C00001BD10B586B00446142200216846FFF70F
:1023D0004BFB21681E48814236D11E48C16841F43A
:1023E0000041C160C16801F400410591059902688E
:1023F00042F004020260036803F0040305930599A8
:10240000026842F0020202604FF44061006800F08E
:1024100002000590022205980F48009101920021C8
:1024200002910391062104916946FFF73BFC0022CB
:102430000292039220200221009001910622049230
:1024400069460648FFF72EFC06B010BD4C1200206E
:10245000003C00404C1002400008004800040048C6
:1024600018B587B01022002103A8FFF7FDFA00F08D
:102470006EF85E4C4FF080402060A9214FF0FF3095
:10248000E06000228020A0616160A260226120469D
:1024900000F0BEFD08B1FFF769FA4FF480500390D9
:1024A00003A9204600F032FF08B1FFF75FFA00F001
:1024B00053F808B1FFF75AFA08B010BD10B58EB046
:1024C000102200210AA8FFF7CFFA00F040F81C22E2
:1024D000002103A8FFF7C8FA454C464820600021B8
:1024E00046F29050E0606160A1602161A1612046E8
:1024F00000F08EFD08B1FFF739FA4FF480500A90D2
:102500000AA9204600F002FF08B1FFF72FFA204683
:1025100000F0D3FD08B1FFF729FA00F01DF808B16B
:10252000FFF724FA60210022039104920221042281
:102530000591079203A90022204600F05EFE08B133
:10254000FFF714FA204600F02AF80EB010BD0C2256
:1025500000216846FFF788BA0021009102912046C9
:10256000694601F0E5BF81B000682349B0F1804FB2
:1025700007D1086840F001000860096801F0010116
:1025800009E01C4A904208D1086840F00200086047
:10259000096801F002010091009801B0704710B580
:1025A00086B004461422002101A8FFF75DFA2168D5
:1025B0001048814217D11148016841F004010160BF
:1025C0004021006800F004000090022200980C48AE
:1025D00001910292002103910322022105910492AC
:1025E00001A9FFF75FFB06B010BD0000B01200208C
:1025F000FC12002000040040581002404C10024021
:1026000000080048603000EB8100006800F0F840EE
:102610007047603000EB8100016821F000410A43FF
:1026200002607047CB0D10B5143003F00403181886
:10263000090D01F01F01036807248C40A34302FA2F
:1026400001F11943016010BD7CB50446002004F17E
:1026500058060D4600903178012901D1022076BD3F
:102660000120307000F099F8010070682BD120F43F
:10267000885040F00200706005F080452268DFF865
:102680003005936803401D4345F000459560DFF831
:10269000242520688068C00F0FD00098401C00904F
:1026A00000989042F5D3706820F0020040F01000CE
:1026B000706000203070012076BD7268012060F3E8
:1026C0000102726002E040F0100070600020307083
:1026D000084676BDF8B50646DFF8DC0404683068C5
:1026E0008168090704F01F0411D4C168C06C10F49C
:1026F000C07F06F1580507D1002905D4696841F06B
:10270000200169600120F2BD2878012801D1022052
:10271000F2BD01202870304601F00CFA01002BD1E7
:102720006968CA0546BFA96821F008010021A960AF
:102730006A6800F024F86A60DFF88C1532688A4213
:1027400000D11CB96A6822F480126A606022336882
:102750001A6000272F7032688A4204D1002C1CBFF7
:10276000062C072C03D1D168890107D40DE06968D4
:1027700041F480116960F2BD00212970F2BDDFF8DB
:102780004C150A4042F4805270479368DFF84015B8
:102790000B4043F008039360F2BD204601F003BAFA
:1027A000F8B506460020009006F158050024287868
:1027B0000023012801D10220F2BD012028700F461C
:1027C0007069DFF8102507F1240100281CBFD7F835
:1027D00020C0BCF1010F0FD1786809282DD13B68CA
:1027E00048685B0C03F4785300F0F8F900F0FDF949
:1027F0001A43C264EB6020E0286938B9C5F810C0FC
:10280000E8603B6A48685B1E00F0E8F9386897F8B2
:1028100004C0C0F384600CF01F0C00FA0CF00343FA
:102820002869D5F80CC0401E43EA0C032861EB6010
:1028300003D100F0DAF91343C364326890680007EB
:102840000CD448788B780028D06820F4401040EAF7
:10285000435304BF087843EA0053D3603268936857
:1028600090685B0700F1F28000077AD4486800287E
:102870001CBF8868002806D148780128D0680CD190
:1028800040F000700BE04878012805D1686840F0FE
:1028900020006860012403E0D06820F00070D06060
:1028A000087B326801280AD113690869496923F451
:1028B000FF7303430B4343F00203136103E010690A
:1028C00020F002001061BA68B2F1004F09D13968F6
:1028D00030680022FFF7A6FE3068416941F00041F0
:1028E00007E039683068FFF79DFE3068416921F0E4
:1028F000004141613068C1683A69042A32D06030D1
:102900003B6800EB820CDFF8D003DCF800200240CB
:1029100003F0F8431343C9087A69480000F0060041
:102920008240134343F00043CCF8003031683A69E9
:10293000B869603101EB82010B6823F080731843A2
:102940000860387F01280CBF4FF00070002031680C
:102950003A69603101EB82010B6823F00073184380
:10296000086073E000F02BF9400304D100F026F971
:10297000C0F3846003E000F021F900F02AF939681F
:102980004A030EBFC1F3846191FAA1F1B1FA81F15A
:10299000884204D1306800220021FFF73AFE00F09F
:1029A00032F9400304D100F02EF9C0F3846003E053
:1029B00000F029F900F00DF939684A030EBFC1F3A0
:1029C000846191FAA1F1B1FA81F1884204D13068B1
:1029D00000220121FFF71DFE00F011F9400304D190
:1029E00000F00DF9C0F3846003E000F008F900F096
:1029F000F0F839684A030EBFC1F3846191FAA1F17E
:102A0000B1FA81F1884204D1306800220221FFF737
:102A100000FE00F0F0F8400304D100F0ECF8C0F341
:102A2000846003E000F0E7F800F0D3F839684A0367
:102A30000EBFC1F3846191FAA1F1B1FA81F188422C
:102A400004D1306800220321FFF7E3FD306881687C
:102A5000C9075DD4FB68A14A39689342D0F8B03009
:102A6000C1F312010CBF194323EA0101C0F8B010F1
:102A7000F86890424CD1386841030EBFC0F38462BD
:102A800090FAA0F1B1FA81F2521C012102F01F026A
:102A9000092A1BD8420306D1C0F38462C0F38463C1
:102AA000C0F3846001E000F08DF8521C5B1C9206BC
:102AB00003F01F03401C02F0F842994000F01F0091
:102AC000114300EB400041EA00511DE0420306D1F2
:102AD000C0F38463C0F38462C0F3846001E000F05B
:102AE00071F85B1C521C401C9B0602F01F0200F098
:102AF0001F0003F0F84391400A38194300EB4000EF
:102B000041EA005141F00071BA683068FFF78AFD70
:102B10003A687348024246D02748724B016801F078
:102B2000E0719A421CBF704FBA421DD10B021BD4F8
:102B30003268B2F1A04F36D103686C4A23F0E073DB
:102B4000194341F40001016069480168B1FBF2F2E8
:102B5000921C0C2042430092009800281EBF00984F
:102B6000401E0090F8D11EE0624F574BBA420BD185
:102B7000CA0118D436689E4215D0026822F0E0726D
:102B8000114341F080710DE05B4FBA420BD14A0214
:102B900009D436689E4206D0026822F0E0721143E2
:102BA00041F480010160002028702046F2BD000041
:102BB000C0FFFF3F02DE0400080300503068002120
:102BC000FFF720BD90FAA0F0B0FA80F2134610464D
:102BD000704790FAA0F0B0FA80F0704720B100F092
:102BE0007C0003438868034370473068D0F84CC0CA
:102BF00002EA0C02704730680321FFF703BD30681A
:102C00000221FFF7FFBC30680121FFF7FBBCF0B5E4
:102C100000F158049BB023780022012B08BF02204A
:102C20004AD00125257000261796002518950368BF
:102C3000B3F1A04F27D1314FDFF8C4C03B68DCF8B7
:102C400000506D0732D45B0730D40B682D4D2E4EEB
:102C5000F3B1D6F800E04B6890F838002EF4604EDF
:102C600043EA0E0343EA403EC6F800E0DCF8000009
:102C70003B681843C3071CD43768086889683D401F
:102C800005430D4310E000F019F82270012013E015
:102C9000306820F460403060DCF800003968084398
:102CA000C00706D431680D40356002E000F006F838
:102CB00001220020207010461BB0F0BD606840F07B
:102CC000200060607047000000010050FEDFFFFF41
:102CD000C0FFFF7F0040100400F0FF0300007F40B2
:102CE00000000880000021C31000C090400D0300C8
:102CF00014000020000052C7000084CB08010050DF
:102D000008000050E0F0FFFF0803005010B51C4918
:102D10001C4B1D4C0020088000221C48427002778A
:102D20000021022280F8202041710122027080F8E7
:102D30002D20C1770C2282778182817681713221A8
:102D4000134A0261818440F6020202814281C3601B
:102D50001049114A114B816240F8382F436084605A
:102D60000120002208820A75887003220020CA70A0
:102D70000881C8800122022088808A7410BD00BFAB
:102D8000A414002020080020E41000204813002094
:102D90001C000020E41300202410002084100020D8
:102DA00010B5040001D1012010BD207920B9002107
:102DB00061712046FFF7AEFA0220207100212161E7
:102DC00001202071002010BD70B505460C466879C1
:102DD000012801D1022070BD0120687102212971F2
:102DE00004F01006286801680122B240114300F087
:102DF0000AF9286854B9006800F03E00022812D190
:102E00002868416841F0010141600CE0016802203E
:102E100001F4781100FA06F6B14204D12968486835
:102E200040F00200486001202871002169710020F3
:102E300070BD18B50024009400290068C46B009090
:102E4000009807BF12180832121814320092009826
:102E50000360002012BD2DE9F04106460F4670794F
:102E60009046012808BF022000F0C1800120707147
:102E70000221317108F01005B868042823D1FEF74B
:102E80004DFCB8F1000F044632D13068416B0804A4
:102E900005D5FEF743FC001B0128F6D931E000F010
:102EA000B3F83168786A086440F2FF323068816CA8
:102EB000BB6A00F0A3F88164FF223068C16CFB6A32
:102EC00000F09CF8C164F869012806D13068816B74
:102ED0003B6A1F2200F092F8816307213068C06BC3
:102EE000A94020EA0103B869012817D100241DE098
:102EF0003068416B00290BD5FEF710FC001B012840
:102F0000F6D9306940F008003061032131716DE07D
:102F100000F07AF83168786A4864C5E7022808BF8B
:102F2000012403D07869441EA441E40FB96878698C
:102F300001430C434FF480723979AA4023EA02021C
:102F4000012908BF44F480744FF400707979A840D7
:102F500022EA0000012908BF44F4007420F440482C
:102F6000386802280DD1FEF70EFB2249884228BF9F
:102F700048F4004807D22049884204D348F48048E6
:102F800001E040EA08083068AC4044EA0808C0F8AC
:102F90003C804FF4804230680168AA409143016050
:102FA00040F6FE7330680168FA68AB409943AA4066
:102FB00011430160C02330680168AB409943016050
:102FC00040F60F723068016E3B69AA409143FA687F
:102FD0009B01C2F3830203F470631A4302FA05F5FE
:102FE0000D43056601203071002171710846BDE86E
:102FF000F08100000168890901B4C404AA4091432A
:10300000AB40194370470160012001F0DFBA0000B6
:1030100038B5040001D1012032BD00F0E5F818B93F
:1030200000F0E1F9FFF79FFA31E090F83D10012937
:1030300001D001207047022180F83D10DFF87C218B
:103040000168914218BFB1F1804F0FD0DFF87021B5
:1030500091421CBFDFF86C31994207D0DFF868213C
:1030600091421CBFDFF86431994209D18A68DFF8C8
:103070006C110A40062A18BFB2F5803F05D00168DE
:103080000A68084642F001020260002070470220F0
:103090006870211D206800F0AAF901202873012121
:1030A000A970E87029716871A971E8712972687254
:1030B000A972E8726970002032BD38B5040001D1F0
:1030C000012032BD00F090F818B900F08CF901F041
:1030D00091FADCE770B5044604F13E0009B90278C4
:1030E0000FE0042908BF42780BD0082908BF827876
:1030F00007D00C2908BFC27803D010290CBF027971
:103100004279012A01D0012070BD11B9022202705A
:1031100014E0042902D1022242700FE0082902D1F2
:10312000022282700AE00C2902D10222C27005E05C
:10313000102907BF02220271022343712068012275
:1031400000F040FB00F02EF818BF904208D08842F3
:103150001FBFDFF88C50A842DFF88860B04203D16F
:10316000456C45F4004545642068984218BFB0F1AD
:10317000804F09D000F013F81CBF124DA84203D0B5
:10318000904218BF884206D100F012F818BFB1F57E
:10319000803F02D0206800F01BF8002070BD084B73
:1031A000984270472068054B0849074A9842704783
:1031B00081680A480140062970470000002C014040
:1031C000000400400008004000340140004001407D
:1031D0000168024641F001011160704707000100DB
:1031E000004401400048014004F13C056878704704
:1031F000002084F83C002846704770B500F07FF846
:1032000001D1022070BD012084F83C0052B1042A93
:1032100019D0082A29D00C2A38D0102A48D0142ACC
:1032200057D068E0206800F035F92168886940F0DF
:1032300008008861886920F0040088618A69306923
:1032400002438A6158E0206800F066F920688169CD
:1032500041F400618161816921F48061816181694A
:10326000326941EA0221816146E0206800F08BF971
:103270002168C86940F00800C861C86920F00400EE
:10328000C861CA6930690243CA6135E0206800F04C
:10329000B3F92068C16941F40061C161C16921F4D9
:1032A0008061C161C169326941EA0221C16123E0E3
:1032B000206800F0E1F92168086D40F00800086519
:1032C000086D20F0040008650A6D306902430A6544
:1032D00012E0206800F0FAF92068016D41F4006105
:1032E0000165016D21F480610165016D326941EA7A
:1032F0000221016500E00125FFF77AFF70BD044659
:10330000002594F83C0001280E467047F8B50646A3
:1033100006F13C0500242878012801D10220F2BDE5
:103320000120287002226A70DFF864043268936812
:10333000034093600868020018BFB0F110023ED04D
:10334000103A3CD0103A3AD0103A34D0103A27D044
:10335000103A29D0103A14D04FF47967D21B34D0E8
:103360004FF48057D21B13D0DFF82874D21B26D01D
:10337000103A24D0103A22D0103A20D0303A1ED041
:1033800022E000F02BF83068816841F0770105E019
:1033900000F024F83068816841F48041816014E0D5
:1033A00000F018F850210BE0CA684968306800F056
:1033B000C8F9602104E000F00DF8402100E001466A
:1033C000306800F0D0F900E001240120687000F0BE
:1033D0000AF8F2BDCA6849683068A3E1CB684A6858
:1033E00089683068E4E100212970204670472DE9A2
:1033F000F041D0F800C0DFF89073DFF89033DFF8C9
:103400007843DFF87853DFF87863DFF88CE3DFF890
:103410007483B84218BFB0F1804F04D040451CBF40
:103420007045B0420DD14A682CF0700C42EA0C0C89
:10343000B84218BFB0F1804F0BD0404518BF70455F
:1034400007D0B04218BFA84203D0A04218BF98428C
:1034500004D1CA682CF4407C42EA0C0C4A692CF076
:10346000800C42EA0C0CC0F800C0B842D1F808C089
:10347000C0F82CC00A68826218BFB04204D0A842CB
:103480001CBFA042984201D1096901630122426137
:10349000BDE8F0812DE9F041026ADFF8EC82DFF847
:1034A000D872DFF8D8C2DFF8D8E2520852000262C0
:1034B000066A44688569DFF8E4220B6815408A686B
:1034C00026F002061D431643DFF8C032404518BF00
:1034D000704504D060451CBFB84298420DD1CA68FF
:1034E00026F00806164326F00406404518BF70452E
:1034F00005D0604518BFB84201D0984205D14B694C
:103500008A6924F440741C4314434460856149680B
:1035100041630662BDE8F081F0B5026A22F0100254
:103520000262056A4368846900F09EF825F0200570
:1035300045EA021500F094F818BF904208D1CF6810
:1035400025F0800545EA0715B04225F040050DD06D
:1035500090421CBFDFF82422904207D0DFF81862A7
:10356000B0421CBFDFF82422904206D14E698A691E
:1035700023F44063164343EA860343608461496849
:1035800081630562F0BDF0B5026ADFF8103222F403
:1035900080720262066A4468C5690A6826F4007689
:1035A0001D408B6846EA03261543774B744A9842C0
:1035B00018BF904208D1CF6826F4006646EA072675
:1035C000984226F480660AD090421CBF6B4A904213
:1035D00005D0694B98421CBF6C4A904206D14B699A
:1035E0008A6924F44054134344EA03144460C561D7
:1035F0004968C1630662F0BDF0B5026A22F48052E8
:103600000262056A4368C46900F02EF825F400558B
:1036100045EA023500F024F818BF904208D1CF687F
:1036200025F4004545EA0735B04225F480450AD027
:1036300090421CBF514A904205D04F4EB0421CBF31
:10364000524A904206D14E698A6923F44043164398
:1036500043EA86134360C461496801640562F0BDB2
:10366000494E474AB04270474D4A0E6814408A6836
:1036700044EA06247047000070B5026A494B22F400
:1036800080320262046A4568066D0A681E4016436D
:103690008B683D4A24F4003444EA034490421CBF42
:1036A000374B984207D0354A90421FBF324B984261
:1036B000364A904204D14A6925F4803545EA02250C
:1036C0004560066549688164046270BD70B5026A30
:1036D00022F480120262036A4468056D324A0E6861
:1036E000154045EA06258A68274E23F4001343EA6D
:1036F0000253B0421CBF224A904207D01F4EB04234
:103700001FBF1D4A9042214EB04204D14A6924F4A1
:10371000802444EA8224446005654968C1640362E8
:1037200070BD000010B5036A046A64086400046296
:1037300023F00A03846924F0F00444EA021484614B
:103740004BE010B5036A23F0100303628369046A37
:1037500023F4704343EA023324F0A004836144EA73
:103760000114046210BD8368104A1340194341F0EC
:1037700007018160704700000044014000400140A3
:103780000034014000040040002C0140004801408A
:103790008800CEFF10E00F00000800408CFFFEFF05
:1037A000FF8CFFFE8FFFFEFFFF8FFFFE8FFFCFFF1F
:1037B00010B5846824F47F442143114341EA032176
:1037C000816010BD10B501F01F01036A01248C4017
:1037D000A343036202FA01F1036A1943016210BDB7
:1037E000F8B504460020002500900CB90120F2BD78
:1037F00004F15806706828B92046FEF7D0FC002076
:10380000B060307021688868800004D58A68DFF86D
:10381000FC0202408A6021688868C00017D48A6868
:10382000DFF8EC02024042F080528A60DFF8E412D6
:10383000DFF8E4220868B0FBF2F2521C520000925A
:1038400002E00098401E009000980028F9D12068FE
:103850008168C90008D4726842F0100272600125C4
:10386000B16841F00101B16081687268D30600D48B
:10387000490700F19C80726822F4807242F00202D3
:1038800072608068C00710D4DFF89012DFF89022D1
:10389000086811680843C00707D4DFF888120A686F
:1038A000606822F47C1202430A6004F12402607F03
:1038B0009369E168177843EA4033A0680B430343F8
:1038C000012F43EA074303D15068401E43EA4043B7
:1038D000906820B100F478700343D06803432168F6
:1038E000DFF84402CF6807403B43CB6021680B6997
:1038F000106923F0406303430B6121688B6888687B
:103900005B0740D400073ED4CB68DFF82002277F56
:103910000340107D43EA873343EA4003CB602069CC
:103920000028206801690CD041F4803101612168D0
:10393000D1F8C03020699B0B40EA8333C1F8C03016
:1039400009E021F4803101612068D0F8C010890BB2
:103950008903C0F8C010107F01280FD123681F69A8
:10396000106A516A6FF38A070743906A0F43D16A5E
:1039700007430F4347F001071F6104E02068016916
:10398000490849000161606901282068016B05D17F
:10399000226A0909521E42EA011101E009090901DE
:1039A00001630120716860F30101716004E07068D7
:1039B00040F01000706001252846F2BDF8B500F017
:1039C0009DF804F01F0400F18C8005F15806317851
:1039D000012900F0868001203070284600F0AAF806
:1039E00001007BD1726800F07EF872602968DFF810
:1039F0004021914200D11CB9716821F4801171609D
:103A00007168CB0446BFB16821F006010021B160A6
:103A10001C2329680B600027377029684B6823F046
:103A20001C034B60A969082929684B680CBF43F047
:103A3000080343F004034B60E96B21B929684B6824
:103A400043F010034B6001212B68934204D1002CFA
:103A50001CBF052C092C1FD1DA68940117D5726898
:103A600061F30D327260A9690829596807D121F004
:103A70002001596029684A6842F0400206E021F0BE
:103A80004001596029684A6842F020024A602A6869
:103A9000DFF87C1093682CE0736843F48013736044
:103AA000DFF86C311B689C011CD5736861F30D3322
:103AB0007360A9690829516807D121F0200151607C
:103AC00029684A6842F0400206E021F04001516056
:103AD00029684A6842F020024A60F2BD0021317034
:103AE000F2BD0220F2BDDFF82C110A4042F48072D0
:103AF00070470B4043F004039360F2BD0546DFF8C6
:103B0000180104682968886840077047C0FFFF5F94
:103B1000C0FFFF7F14000020400D0300080000508C
:103B200008010050080300500740F0FFFDBFFFFFF1
:103B30000001005070B5044621688868C20723D48C
:103B400088686FF39E10F0B98868344D284040F0C3
:103B500001008860FDF7E2FD064620680168CA079B
:103B600012D48068C00705D420688168294041F0DC
:103B700001018160FDF7D2FD801B0328EDD3206891
:103B80000168CA07E9D401E0002070BDE06D40F093
:103B90001000E06500F001F870BD206E40F00100FB
:103BA00020660120704738B50446216888688A6815
:103BB000D2072BD5800729D48A6802F00D02012A8A
:103BC0001DD18A681548024042F002028A60032132
:103BD00020680160FDF7A2FD054621688868C107DD
:103BE00014D5FDF79BFD401B0328F6D320688168A0
:103BF000C807F2D5E16D41F01001E16503E0E06D29
:103C000040F01000E065FFF7C8FF32BD002032BD74
:103C10000C000050FEF1FFFF08030050C0FFFF7FC3
:103C200038B5040001D1012032BD20684CF6CC41EA
:103C3000016045F25552026063684360A16881608B
:103C4000FDF76CFD05462068C16811F0070F0BD029
:103C5000FDF764FD401B3228F5D32068C16811F0E0
:103C6000070FF0D0032032BDE16802698A4212BF1B
:103C700001614AF6AA210160002032BD00684AF6BF
:103C8000AA210160002070478E48002100220023F5
:103C9000416002608360C160026141618261C16113
:103CA0008948416041F6351102708360C16002614C
:103CB000426182618548026042608360C260026145
:103CC000426182618248026042608360C2608148D2
:103CD000026042608048026042608360C2600261AC
:103CE0007E480260C260036142617D4802604260BA
:103CF0008360C26002617B480280438082800272DE
:103D0000704700002DE9F043774A7649B1F80490F6
:103D10005088B1F8068014786E4F744BB9F1040FD7
:103D2000A0F1010E48F201454FF480564AD8DFE871
:103D300009F0030D334A5900002454604FF0400C41
:103D4000C3F804C04FF0010EA1F804E04FF0000CDE
:103D500081F801C081F802C0C7F804C05E613E6806
:103D6000B6F5967FA2BF576807F10A0CB445A4BF09
:103D70000A3FBE4201DA00240CE0641CE7B2652F62
:103D800008DB04275F614FF0400CC3F814C0022326
:103D900000248B80566014E0386840F25926B04207
:103DA00007DB03278F800126186880F48050186095
:103DB0004E70704686B226B91E6886F4805605207D
:103DC0001E60A84639E0704685B245B9C87800281B
:103DD00014BF0F2064201D6885F480551D604FF4CA
:103DE00000482AE000254D705E614FF0400C404DC8
:103DF0002F6887F480572F60C3F804C00B7ADF0761
:103E000048BF48F602080DD49F0748BF49F6060888
:103E100008D45F0748BF49F2040803D41F0748BF0E
:103E200049F2054813F0070F07D101278F801F07BC
:103E300044BF03F0F7030B726E6014705080A1F85A
:103E40000680BDE8F083F0B5204D2A4B2548AD68CB
:103E50001C888288017AFA2D25DA160023D0641C8A
:103E6000A6B2C92E06DB244F0426C82441F0010166
:103E700004223E601C80CC070BD540F22D16B542C3
:103E800015DB5C88641CA5B20B2DA8BF01F0FE01F8
:103E90005C80104B9B68512B0BDB13000FD041F063
:103EA000020104220BE02600E4D0641EE2E70024B5
:103EB000EEE78C0703D5322BB8BF01F0FD0101728C
:103EC0008280F0BD8C130020AC130020C8130020AA
:103ED000FC1300207814002040140020141400204B
:103EE0005414002084140020000000201404004812
:103EF00014000048A81400201804004822B90A46FB
:103F000001463A48FCF7A8B970474A785AB9384A86
:103F10004FF4006308B1136107E01360887E00F07E
:103F2000FE00887670470028F8D0887E40F00100B7
:103F3000F7E710B5044672B6206CFCF704FA607817
:103F400010B92A490868426A2289E168206CFCF7A6
:103F5000C8F962B610BD38B50446A06B0268218965
:103F60005068228E081A81B29142A08203D0208626
:103F70000020A08631BD4FF4FA7580B270B1A08EDA
:103F800094F82010401CA08680B2884204D30122FD
:103F9000E2772046FFF7CDFF658631BD608E401E7B
:103FA000608680B220B965862046BDE83240C0E711
:103FB00031BD01460F48CEE710B50446A07EC107CB
:103FC0000FD5206C0068C1694A060AD5C069010690
:103FD00007D521460020FFF798FF2046BDE8104096
:103FE000A7E710BD0348E7E700000000E410002049
:103FF000180000484813002070472DE9F843884610
:1040000004464FF00009A17FA07E4A0704F1220573
:1040100005D5C3070DD50A21297001200EE08107BF
:1040200007D500F0FD00A07621460A202870012067
:1040300005E0287810B1401E287002E02146FFF705
:10404000DBFFE07F1627002804F1280609D072B6AE
:10405000401EC1B209B94FF00109E07762B6B9F16B
:10406000000F73D0A07E00F0FD00A076A07F0106B7
:1040700004D46A88A8EB0202521DAA80810740D5A9
:1040800031793268794302F11403585C002857D122
:10409000E068037811448A78934251D1204600F0B9
:1040A000AAFA00284CD03179306879430144C878A5
:1040B00001280FD0032818BF172803D0242818BFC1
:1040C000042814D1E0688178A08A491DC9B2C0B221
:1040D00081420CD1204600F028FD307931687843C8
:1040E00001F110021031135A43F010030B5200F08B
:1040F000A0F83168327901F113007A43002181542C
:104100001EE000071CD5002160792183C0B9E0685A
:1041100021780078884218BFFF2811D1204600F08E
:104120006AFA68B100F085F8204600F0C4FA208BE6
:1041300030B1A07F410703D5A07E40F00400A076F7
:104140000020A17EA08241F00801A176A07FC107D6
:104150004FD5A8886988A8EB000080B2884248D370
:10416000A07E00F0FE00A07630797279401CC1B2CA
:10417000914206D3B179491E0020CBB203B9FA218E
:10418000B17130713179D6F800C00B467B430CF128
:104190001000C05CC00709D50CEB030EB0799EF887
:1041A00012E090FBFEF90EFB190028B1491C317199
:1041B000C9B29142E6D13AE00CF11401A5F80480AD
:1041C000C85C40B9204600F0FDFB2083A07F81073A
:1041D00001D400F02EF8A07E40F00400A0763079E3
:1041E00017FB00F7306800F113011330CA5D521C51
:1041F000C255A07E41071AD500F0FB00A0762146EB
:104200000120FFF782FE218B62782069491C89B268
:10421000FFF774FE0120E082A17F480707D50A213D
:10422000297001202146BDE8F443FFF7E5BEBDE853
:10423000F183A07E40F00200A076704730B53222B4
:10424000DFF88C30DFF88450DFF87C10012448B9A7
:1042500000F01DF820F48070286016D100F01EF8E0
:104260000CD412E0B0F5007F0AD100F010F840F451
:104270008070286009D100F011F806D5032030BD08
:104280000A68022060F34A220A60002030BD0868F4
:1042900000F4C060B0F5806F28687047086864F368
:1042A0004A2008601B68DFF82C405A43B2FBF4F048
:1042B000401C00E0401E4A69530501D50028F9D191
:1042C0004869410570470000007000408070004060
:1042D0001400002040420F0062F30F2262F31F42DD
:1042E000401810F0030308D0C91A1FD3DB0748BFDA
:1042F00000F8012D28BF20F8022D130030B4144619
:104300001546103928BF20E93C00FAD8490728BFD4
:1043100020E90C0048BF40F8042D890028BF20F890
:10432000022D48BF00F8012D30BC7047C91818BFD6
:1043300000F8012DCB0728BF00F8012D70470000C1
:104340000901020002D4284881547047274B02F02B
:104350000F021A4402F8041C7047254B19684FF6E7
:10436000FF020002114000F4E060084321490843C5
:104370001860704770B51E4B1C68C4F302230124FB
:10438000C3F10705052D2EBF0F2504FA05F56D1E97
:104390001E1D072E34BF0023DB1E2940994004FA5E
:1043A00003F3BDE870405B1E1A401143C8E70000EC
:1043B000010007D4012200F01F010F4B8A40400981
:1043C00043F820207047401EB0F1807F01D30120C8
:1043D00070470A490A4A48600023F02010708B6039
:1043E000072008600020704700E400E018ED00E0BE
:1043F0000CED00E00000FA0500E100E010E000E054
:1044000023ED00E080B50E48816841F00101816034
:10441000816801F0010100910099026842F0805228
:104420000260006800F08050009000980020FDF7C6
:1044300060FDFDF76AFDBDE802400020FDF75EBDAE
:104440005810024038B5040001D1012032BD606A25
:1044500030B96068B0F5827F05D00021E16102E0EB
:104460000020206160610020A06204F15C05687892
:1044700020B9002129702046FDF7A3FF02206870B3
:1044800000F04FF8E168B1F5E06F04D90020B1F514
:10449000706F03D104E04FF4805001D00021A1627D
:1044A0006168A268237C01F4827102F40442114322
:1044B000227D03F002031943A36902F001021143B4
:1044C000227F03F40073194394F8203002F038027D
:1044D0001143A26A03F080031943236802F40052D7
:1044E00011431960A16994F8242094F83430090C20
:1044F00001F0040102F010021143E26803F0080326
:10450000194302F47062114308432168486020682F
:10451000C16921F40061C1610020686001216970F6
:1045200032BD2068016821F0400101607047000041
:104530002DE9F04100F13C052A78012A08BF02204C
:1045400036D001222A7002236B700768DFF86C8076
:10455000D7F804C0BE68DFF85CE0474518BF774570
:1045600004D14C682CF4700244EA020C144B0A6823
:1045700003EA0C0342EA030CC7F804C00268424590
:1045800018BFB2F1804F0AD00B4882421CBF0D4BBE
:104590009A4204D072451CBF0B48824204D18868FD
:1045A00026F080060643966001216970002028707D
:1045B000BDE8F0810034014000040040002C0140BF
:1045C0008FFFFFFD000800400040014038B5044661
:1045D000FDF7A4F814F1010F054602D004498868DC
:1045E0000419FDF79BF8401BA042FAD331BD00BF70
:1045F000080000207047F8B5818A00240A46C56883
:10460000042A1FDB03898B421CD3A9188E1E837FCB
:10461000911E827913F0180F06D1836A90F82C70DE
:1046200016204743D819037C03F020031A4389B2AC
:10463000284600F0B6FA7178327842EA01229042B8
:1046400008BF2C782046F2BD2DE9F04100F02DF88E
:1046500013E0B91007EB5170C01007EB5171335CD8
:1046600001F0F8010120791A00FA01F138194246E7
:10467000194080B200F0DDFA7F1CAF42E9DBBDE8F3
:10468000F0812DE9F04100F010F809E03078717800
:1046900041EA00213819424600F091F9B61C7F1C0E
:1046A000B8B2A842F2D3BDE8F08104460D461646E2
:1046B0009846002770472DE9F84F84B00446002043
:1046C0000390E5682669ADF8040001232A7832706A
:1046D0008146ADF80430022168787070ADF804109E
:1046E000A878E97841EA002302936A78032A18BF80
:1046F000042A0DD0062A43D0102A59D0172A04D0F4
:10470000202A55D0242A03D0272A00F08C80E7E005
:10471000A07F410740F11E8128796F79618947EABE
:104720000027207F002819BF0A398910091F491066
:10473000002F43D089B2B94245DB7800B070032125
:10474000ADF8041068786278242808D100923B46BE
:10475000029801AAF11C80B200F069FAB9E002984F
:10476000394680B200F04CFADDF80880CA4600F005
:10477000F4F880F2AC8000F00EF900F0F8F8F6E7FB
:1047800000F0EFF805220421ADF8041006202B7983
:1047900069793371ADF804207171ADF8040041EA14
:1047A00003210298627800F00AF96278012135E06D
:1047B0002A796F7957EA02274FF0070B43D02289F5
:1047C000083A5210BA423EDB00F0CBF83A0A042114
:1047D000ADF8041032710521ADF80410777106228E
:1047E000ADF80420687810280AD1DDF80880CA46A0
:1047F00000F0B3F80EDA00F0D4F80AF1010AF7E796
:10480000DDF808E063783A46E91D1FFA8EF000F003
:104810000FFA01E0CDF8088062783946029880B23C
:1048200000F004FA5FE02879697941EA00210091FB
:10483000207F6189002819BF0A398910091F491092
:104840000098814204DA012103914FF003094AE004
:10485000A879E9796F7A41EA0028287A47EA00279F
:10486000687817284FF00B0B08D1CA4600F075F88E
:104870000BDA00F096F80AF1010AF7E763783A4696
:1048800005F10B01404600F0D3F962783946404605
:1048900000F0CCF90098BDF804204100B154CA469C
:1048A000BDF80400029B401CADF80400009862783B
:1048B00081B298B200F0A4F9DDF80880009F03E00F
:1048C00000F069F800F053F800F047F8F8DBCDF895
:1048D000088002986278B9B280B200F09CF902E0D8
:1048E000012103918946A07F410733D50398C0B1C8
:1048F000BDF80400411EADF804106878BDF804202E
:10490000A0F18001B154BDF80400401CADF80400D2
:10491000BDF8040006F80090BDF80410491CADF87D
:104920000410A27FA079BDF8041002F02002024317
:10493000304600F036F9BDF804107054000ABDF896
:104940000420521CADF80420BDF804107054BDF8CA
:104950000400208305B0BDE8F08F1FFA8AF0B8424A
:104960007047B0700322ADF80420F1707047BDF8B5
:104970000420010AB1540AF1010ABDF80410491CCF
:10498000ADF80410BDF804107054BDF80400401CCC
:10499000ADF80400704761780AEB080080B200F0BF
:1049A00030B90BF101021FFA8BF091B2285C695CFF
:1049B00002F1010B41EA002162780AEB080080B2A3
:1049C00000F02AB92DE9F0470546162095F82C206D
:1049D000A96A2F6942438E180424B1783970F0789F
:1049E0007870F088010AB970F870F078401E0328DA
:1049F00007D9401F0CD00A3819D0C01F4BD00D3832
:104A000079D1B288120A3A710624B088787172E0BE
:104A10006A783089012100F0F3F86978308900F074
:104A2000F0F8010A3971787106246A7830E0B088AC
:104A3000000A38710724B0887871B1884800B871CD
:104A40003389287F69899946002819BF123989104E
:104A500008394910B08810B189B2814201D20120D1
:104A6000B08001216A78184600F0CAF84FF00008BB
:104A700008E008EB09001146FFF790FF00F04DF841
:104A800008F10108B1886A781FFA88F08842F0D3EB
:104A9000308901212DE0B1887089090A3971020A33
:104AA000B1887971BA71F8710B24F089000A3872F3
:104AB0004FF0000AF0897872F1894800B872B6F8B0
:104AC0000C90B6F80E806A784146484600F098F897
:104AD00007E00AEB0900FFF761FF00F01EF80AF19A
:104AE000010A1FFA8AF069784045F2DB0A4641461E
:104AF000484600F090F8327CA87902F02002024388
:104B0000A1B2384600F04DF8A1B2641C7854A1B2AD
:104B1000000A7854A0B2BDE8F087A2B2010A641C72
:104B2000B954A3B2641CF854704738B50446162033
:104B300094F82C30A26AE1684343D5184A78E878A3
:104B400082422DD1401E012807D9801E01281AD982
:104B5000143812D00D3809D031BD63782889CA1CA9
:104B6000A98801B0BDE83040C9B26DE56378AA8874
:104B70002889C91C00F05CF80BE0887880B1AA880D
:104B8000520082420CD1CA1C6378A9882889FFF799
:104B900078FD6278A9882889BDE8384000F046B8D9
:104BA00031BDF0B5034690064FF6FF750BD558188A
:104BB000801E44781419A4F10F06047814191334D4
:104BC00001E0401E07D10846411E80B268B113F8CB
:104BD000010B454008202F047F0CED0746BF87F4EA
:104BE000204585F001053D46EBE732B1F6B2E4B26F
:104BF00044EA06246C40A0B2F0BD2846F0BD000097
:104C00007047014606294AF6AA2003DA064850F8FA
:104C10002110088870477047062803DA024A52F8C4
:104C200020000180704700006856000870477047F8
:104C3000704770477D0000007D0000007D0000008F
:104C40007D0000007D0000007D0000007D00000070
:104C50007D0000007D0000007D0000007D00000060
:104C60007D0000007D0000007D0000007D00000050
:104C70007D0000007D0000007D0000007D00000040
:104C80007B00000078000000770000007500000045
:104C900073000000710000006F0000006E00000053
:104CA0006D0000006B00000069000000680000005B
:104CB000670000006600000065000000640000005E
:104CC0006300000062000000610000005F0000005F
:104CD0005E0000005D0000005C0000005B00000062
:104CE0005B0000005A00000059000000580000005E
:104CF000570000005600000056000000550000005C
:104D00005500000054000000540000005300000053
:104D1000520000005100000051000000500000004F
:104D20004F0000004F0000004E0000004E00000049
:104D30004D0000004D0000004C0000004C00000041
:104D40004B0000004B0000004A0000004A00000039
:104D50004900000049000000480000004800000031
:104D60004700000047000000460000004600000029
:104D70004500000045000000440000004400000021
:104D80004300000043000000430000004200000018
:104D9000420000004100000041000000410000000E
:104DA0004000000040000000400000003F00000004
:104DB0003F0000003F0000003E0000003E000000F9
:104DC0003D0000003D0000003D0000003C000000F0
:104DD0003C0000003C0000003B0000003B000000E5
:104DE0003B0000003A0000003A0000003A000000DA
:104DF0003A000000390000003900000039000000CE
:104E000038000000380000003800000037000000C3
:104E100037000000370000003600000036000000B8
:104E200036000000360000003500000035000000AC
:104E300035000000340000003400000034000000A1
:104E40003300000033000000330000003300000096
:104E5000320000003200000032000000320000008A
:104E6000310000003100000031000000310000007E
:104E70003000000030000000300000003000000072
:104E80002F0000002F0000002F0000002F00000066
:104E90002E0000002E0000002E0000002E0000005A
:104EA0002D0000002D0000002D0000002D0000004E
:104EB0002C0000002C0000002C0000002C00000042
:104EC0002B0000002B0000002B0000002B00000036
:104ED0002B0000002A0000002A0000002A00000029
:104EE0002A0000002A00000029000000290000001C
:104EF0002900000029000000280000002800000010
:104F00002800000028000000280000002700000002
:104F100027000000270000002700000027000000F5
:104F200026000000260000002600000026000000E9
:104F300026000000250000002500000025000000DC
:104F400025000000240000002400000024000000D0
:104F500024000000240000002300000023000000C3
:104F600023000000230000002300000022000000B6
:104F700022000000220000002200000022000000A9
:104F8000210000002100000021000000210000009D
:104F9000210000002100000020000000200000008F
:104FA0002000000020000000200000001F00000082
:104FB0001F0000001F0000001F0000001F00000075
:104FC0001E0000001E0000001E0000001E00000069
:104FD0001E0000001D0000001D0000001D0000005C
:104FE0001D0000001D0000001D0000001C0000004E
:104FF0001C0000001C0000001C0000001C00000041
:105000001B0000001B0000001B0000001B00000034
:105010001B0000001A0000001A0000001A00000027
:105020001A0000001A0000001A0000001900000019
:10503000190000001900000019000000190000000C
:105040001800000018000000180000001800000000
:1050500018000000180000001700000017000000F2
:1050600017000000170000001700000016000000E5
:1050700016000000160000001600000016000000D8
:1050800016000000150000001500000015000000CB
:1050900015000000150000001500000014000000BD
:1050A00014000000140000001400000014000000B0
:1050B00013000000130000001300000013000000A4
:1050C0001300000013000000120000001200000096
:1050D0001200000012000000120000001100000089
:1050E000110000001100000011000000110000007C
:1050F000110000001000000010000000100000006F
:105100001000000010000000100000000F00000060
:105110000F0000000F0000000F0000000F00000053
:105120000E0000000E0000000E0000000E00000047
:105130000E0000000E0000000D0000000D00000039
:105140000D0000000D0000000D0000000C0000002C
:105150000C0000000C0000000C0000000C0000001F
:105160000C0000000B0000000B0000000B00000012
:105170000B0000000B0000000B0000000A00000004
:105180000A0000000A0000000A0000000A000000F7
:1051900009000000090000000900000009000000EB
:1051A00009000000090000000800000008000000DD
:1051B00008000000080000000800000007000000D0
:1051C00007000000070000000700000007000000C3
:1051D00006000000060000000600000006000000B7
:1051E00006000000060000000500000005000000A9
:1051F000050000000500000005000000040000009C
:10520000040000000400000004000000040000008E
:105210000300000003000000030000000300000082
:105220000300000002000000020000000200000075
:105230000200000001000000010000000100000069
:10524000010000000100000000000000000000005C
:10525000000000000000000000000000FFFFFFFF52
:10526000FFFFFFFFFFFFFFFFFFFFFFFFFEFFFFFF4F
:10527000FEFFFFFFFEFFFFFFFEFFFFFFFEFFFFFF42
:10528000FDFFFFFFFDFFFFFFFDFFFFFFFDFFFFFF36
:10529000FCFFFFFFFCFFFFFFFCFFFFFFFCFFFFFF2A
:1052A000FBFFFFFFFBFFFFFFFBFFFFFFFBFFFFFF1E
:1052B000FAFFFFFFFAFFFFFFFAFFFFFFFAFFFFFF12
:1052C000F9FFFFFFF9FFFFFFF9FFFFFFF9FFFFFF06
:1052D000F8FFFFFFF8FFFFFFF8FFFFFFF8FFFFFFFA
:1052E000F7FFFFFFF7FFFFFFF7FFFFFFF7FFFFFFEE
:1052F000F6FFFFFFF6FFFFFFF6FFFFFFF6FFFFFFE2
:10530000F5FFFFFFF5FFFFFFF5FFFFFFF4FFFFFFD6
:10531000F4FFFFFFF4FFFFFFF3FFFFFFF3FFFFFFCB
:10532000F3FFFFFFF3FFFFFFF2FFFFFFF2FFFFFFBF
:10533000F2FFFFFFF1FFFFFFF1FFFFFFF1FFFFFFB4
:10534000F0FFFFFFF0FFFFFFF0FFFFFFEFFFFFFFAA
:10535000EFFFFFFFEFFFFFFFEEFFFFFFEEFFFFFF9F
:10536000EDFFFFFFEDFFFFFFEDFFFFFFECFFFFFF96
:10537000ECFFFFFFECFFFFFFEBFFFFFFEBFFFFFF8B
:10538000EAFFFFFFEAFFFFFFE9FFFFFFE9FFFFFF83
:10539000E9FFFFFFE8FFFFFFE8FFFFFFE7FFFFFF79
:1053A000E7FFFFFFE6FFFFFFE6FFFFFFE5FFFFFF71
:1053B000E5FFFFFFE4FFFFFFE4FFFFFFE3FFFFFF69
:1053C000E3FFFFFFE2FFFFFFE1FFFFFFE1FFFFFF62
:1053D000E0FFFFFFDFFFFFFFDEFFFFFFDEFFFFFF5E
:1053E000DDFFFFFFDCFFFFFFDBFFFFFFDBFFFFFF5A
:1053F000DAFFFFFFD9FFFFFFD8FFFFFFD8FFFFFF56
:10540000D8FFFFFFD8FFFFFFD8FFFFFFD8FFFFFF48
:10541000D8FFFFFFD8FFFFFFD8FFFFFFD8FFFFFF38
:10542000D8FFFFFFD8FFFFFFD8FFFFFFD8FFFFFF28
:10543000D8FFFFFF7047704770477047704770474D
:10544000704770472548016841F001010160244818
:105450000268521C026000F053B8F8B52148224B94
:10546000046821684D0740F2FF3213D504F1800132
:105470000E681E604D681D4E31684F1907EBE1271D
:10548000376040F25121FF124F433F14B760226052
:105490009D611FE01648046804F1800640F22E3139
:1054A00035684D432D141349DD610B685D19A5EB7B
:1054B0002325114B2F121F6076684F68BE19A6EB8B
:1054C000E7260E4F4FEAA64C57F82C709F602260DB
:1054D0004E600D60BDE8F240FDF7FCB89C14002062
:1054E000A0140020741100208C130020C813002089
:1054F000E01100209014002078140020344C0008A3
:1055000002490A68886882180A607047080000200B
:1055100030B4002512E050F8042BD30744BF4A44AE
:10552000521E091F042942F8045BFAD213468C0765
:1055300044BF15809B1CC90748BF1D7050F8041B51
:105540000029E8D130BC704710B5074979441831BB
:10555000064C7C44163404E00A68081D1144884750
:105560000146A142F8D110BD2C0000004C00000003
:105570004EF68851CEF20001086840F470000860D1
:10558000BFF34F8FBFF36F8F4FF00170E1EE100A42
:10559000704700007DFFFFFF901400001C000020FA
:1055A000000000004FC1FFFF1C0000009000000041
:1055B00000000020000000000248016841F4700172
:1055C0000160704788ED00E000000000000000006E
:1055D000010203040607080900F00DF8002801D0B5
:1055E000FFF7B2FFAFF300800020AFF30080FCF7BD
:1055F000A1F800F002F80120704700F001B80000A7
:105600000746384600F002F8FBE7000080B5AFF32C
:105610000080024A11001820ABBEFBE72600020002
:105620000548014603B4684680F30988AFF300805B
:10563000FFF79EFFFFF7D0FFA5EDF5FE0000190074
:105640000000000000000000100000000100000049
:105650000024F40005000A00014880470148004783
:10566000B955000821560008A4140020A4140020F5
:105670000000000001020304FFF7FEBFFFF7FEBFBA
:10568000FFF7FEBFFFF7FEBFFFF7FEBFFFF7FEBF4E
:10569000FFF7FEBFFFF7FEBFFFF7FEBFFFF7FEBF3E
:1056A000FFF7FEBFFFF7FEBFFFF7FEBFFFF7FEBF2E
:1056B000FFF7FEBFFFF7FEBFFFF7FEBFFFF7FEBF1E
:1056C000FFF7FEBFFFF7FEBFFFF7FEBFFFF7FEBF0E
:1056D000FFF7FEBFFFF7FEBFFFF7FEBFFFF7FEBFFE
:1056E000FFF7FEBFFFF7FEBFFFF7FEBFFFF7FEBFEE
:1056F000FFF7FEBFFFF7FEBFFFF7FEBFFFF7FEBFDE
:10570000FFF7FEBFFFF7FEBFFFF7FEBFFFF7FEBFCD
:10571000FFF7FEBFFFF7FEBFFFF7FEBFFFF7FEBFBD
:10572000FFF7FEBFFFF7FEBFFFF7FEBFFFF7FEBFAD
:10573000FFF7FEBFFFF7FEBFFFF7FEBFFFF7FEBF9D
:10574000FFF7FEBFFFF7FEBFFFF7FEBFFFF7FEBF8D
:10575000FFF7FEBFFFF7FEBFFFF7FEBFFFF7FEBF7D
:10576000FFF7FEBFFFF7FEBFFFF7FEBFFFF7FEBF6D
:10577000FFF7FEBFFFF7FEBFFFF7FEBFFFF7FEBF5D
:0C578000FFF7FEBFFFF7FEBFFFF7FEBF04
:040000050800562178
:00000001FF
